:020000040000FA
:1000000002001E00000080FB75821B7583017400D6
:1000100012002A758203758300740012002A75D0BD
:10002000007581BF759F00020008C09FF59FE473B3
:10003000D09F22D083D082C09FE493C0E07401930C
:10004000C0E0740293F59F22120033E80000C3E47D
:1000500098F8E499F912008F8026C3E49AFAE49B99
:10006000FBE920E7E912008FE498F8E499F922C34C
:10007000E498F8E499F912008FE498F8E499F9C348
:10008000E49AFAE49BFB22EB20E7CFE920E7E0B912
:100090000010BB0008E88AF084F8AAF022E4FBC84C
:1000A000FA22EB70227B10C833C8C933C93350071A
:1000B000C39AC3DBF280069A50012ADBEAC833F404
:1000C000C8C933F4C9FA2275F008E4C833C8C93383
:1000D000C933C99AC99B5004C92AC93BD5F0ECFB66
:1000E000C833F4C8E4C9FA227C007D00C3EC9AED61
:1000F0009BA2D265D033502078007900C3E89401E8
:10010000E99400A2D265D033500708E870EE098068
:10011000EB0CEC70D70D80D402003053F4F943FEA1
:10012000067508007509000508E50870020509A8AC
:1001300008A9097AC87B001200878A0A8B0B850AF6
:1001400008850B09E508249CFEE50934FFFFC3EE92
:100150009400EF9400A2D265D033500BC3E49EF814
:10016000E49FF9E8FEE9FF750A00750B00EEF8EF71
:10017000F97A0A7B00120087880C890D740AC395EE
:100180000CF87400950DF9C3E50A98E50B99A2D215
:1001900065D0335092439006EEFAEFFB12004853BD
:1001A00090F97464C39EFA74009FFB120048050A1C
:0801B000E50A70B9050B80B5EA
:040000050000001ED9
:00000001FF
