:100000000C9427080C944F080C944F080C944F083C
:100010000C944F080C944F080C944F080C944F0804
:100020000C944F080C944F080C944F080C944F08F4
:100030000C944F080C944F080C944F080C944F08E4
:100040000C94A31A0C944F080C94A5180C94D71870
:100050000C944F080C944F080C944F080C944F08C4
:100060000C944F080C944F080E09150918091F0924
:10007000220925092809556E6B6E6F776E20436D36
:10008000642120696E707574202F6820746F20675A
:1000900065742068656C70006D792070726F67728E
:1000A000616D65722073746172742C20696E707555
:1000B00074202F6820746F206765742068656C70E9
:1000C00021005553415254207472616E736D6974EE
:1000D00020656E61626C6521005553415254207455
:1000E00072616E736D69742064697361626C6521FD
:1000F000002D2D2D2D2D2D2D2D2D2D2D2D2D2D2D5D
:100100002D2D2D2D002F70622020202020656E7453
:1001100065722070726F6772616D206D6F64652CFF
:1001200020796F752063616E2073656E642062694B
:100130006E2066696C65202735313262797465738B
:100140002064617461202B203262797465322063EF
:100150006865636B73756D272C206966206C656E0E
:100160003D302069742066696E6973682070726F13
:100170006772616D2C2069662070726F6772616DA5
:1001800020737563636573732069742077696C6C81
:100190002072657475726E20276F6B272C206F7428
:1001A000686572776973652C20697420726574754F
:1001B000726E7320657272206D736721002F7065F7
:1001C000202020202020656E7465722070726F6779
:1001D00072616D20454550524F4D206D6F64652C06
:1001E00020796F752063616E2073656E6420686589
:1001F000782066696C6520726F7720627920726F53
:10020000772C2069662070726F6772616D2073753C
:1002100063636573732069742077696C6C20726501
:100220007475726E20276F6B272C206F746865724F
:10023000776973652C2069742072657475726E73AA
:1002400020657272206D736721002F70202020209E
:100250002020656E7465722070726F6772616D2008
:100260006D6F64652C20796F752063616E207365F6
:100270006E64206865782066696C6520726F7720EF
:10028000627920726F772C2069662070726F6772B6
:10029000616D20737563636573732069742077697A
:1002A0006C6C2072657475726E20276F6B272C2022
:1002B0006F74686572776973652C20697420726544
:1002C0007475726E7320657272206D736721002FD2
:1002D00071202020202020656E61626C65206F7285
:1002E00020646973616C626520554E4F20555341FF
:1002F0005254205472616E736D6974746572002D6E
:100300002D2D2D2D2D2D68656C702D2D2D2D2D2D28
:100310002D2D00656E7465722070726F6772616D4D
:10032000206D6F6465206661696C65642100707280
:100330006F6772616D206D6F646528484558293A72
:100340000070726F6772616D206D6F64652845453E
:1003500050524F4D20484558293A0070726F6772CD
:10036000616D206D6F646528454550524F4D2042A8
:10037000494E293A0070726F6772616D206D6F642B
:10038000652842494E293A00636D64206D6F6465AB
:100390003A006572722120556E6B6E6F776E206524
:1003A00072723A2000657272212070726F677261FA
:1003B0006D206572723A2068657820726F77206EC2
:1003C0006F207374617274207769746820273A27EC
:1003D0002100657272212070726F6772616D2065F5
:1003E00072723A2064617461206C656E6774682073
:1003F0006572726F72210065727221207061727372
:1004000065206572723A20636865636B2073756D51
:10041000206661696C6564210065727221207061DB
:10042000727365206572723A206C656E677468201D
:10043000746F206C6F6E672100657272212070618D
:10044000727365206572723A206C656E67746820FD
:10045000746F2073686F727421006572722120704E
:1004600061727365206572723A206E6F2061206838
:10047000657820737472696E6721006166746572B5
:100480002070726F6772616D210000203D3E200078
:1004900000203A20006164647220000000203D3E8C
:1004A00020000000203A200061646472200057613F
:1004B000726E696E672C2063686970206572617363
:1004C000652074696D656F757421006368697020BB
:1004D00065726173696E6721006265666F7265207F
:1004E00070726F6772616D2100796F752073686F2C
:1004F000756C6420696E707574202F6420746F2091
:10050000656E746572206465627567206D6F6465E1
:100510002066697273742100656E7465722064656B
:10052000627567206D6F6465206661696C65642122
:1005300000656E746572206465627567206D6F6416
:1005400065210065786974206465627567206D6F48
:1005500064652100455252202F735B667C6C7C657C
:100560005D00455252202F736C207878004F4B214C
:1005700000536574206C6F636B2062697473207420
:10058000696D656F75742100307800736574206C37
:100590006F636B20626974733A2000455252202FBA
:1005A00073665B6C7C687C655D207878004F4B21BE
:1005B0000053657420667573652074696D656F7589
:1005C000742100307800736574206675736520654A
:1005D00078743A200030780073657420667573650E
:1005E00020686967683A2000307800736574206677
:1005F000757365206C6F773A2000455252202F6743
:100600005B667C6C7C637C697C617C655D004552CB
:1006100052202F73652061646472207878004F4BFC
:100620002100577269746520454550524F4D207422
:10063000696D656F757421003A20307800577269D2
:10064000746520454550524F4D2000455252202F91
:10065000676520787878782028303030307E3033E5
:100660004630290020003A00454550524F4D2000A9
:10067000455252202F6761207878787820283030D2
:1006800030307E33464630290020003A00464C4147
:1006900053482000455252202F67665B687C6C7C73
:1006A000655D0046757365206578743A20284E6F45
:1006B00074653A206368616E6765206675736520AE
:1006C00077696C6C206E6F74206566666563742054
:1006D000756E74696C206C65617665732070726FDD
:1006E0006772616D6D696E67206D6F646529004684
:1006F00075736520686967683A20284E6F74653A9B
:10070000206368616E676520667573652077696C24
:100710006C206E6F742065666665637420756E74F8
:10072000696C206C65617665732070726F677261A9
:100730006D6D696E67206D6F646529004675736520
:10074000206C6F773A20284E6F74653A2063686199
:100750006E676520667573652077696C6C206E6FB7
:10076000742065666665637420756E74696C206CB0
:1007700065617665732070726F6772616D6D696E09
:1007800067206D6F64652900302870726F67726131
:100790006D6D656429003128756E70726F677261C6
:1007A0006D6D656429003028424F444C4556454CD8
:1007B000302942726F776E2D6F7574206465746591
:1007C00063746F722074726967676572206C6576F6
:1007D000656C3A200900302870726F6772616D6D28
:1007E000656429003128756E70726F6772616D6D76
:1007F000656429003128424F444C4556454C312907
:1008000042726F776E2D6F757420646574656374C2
:100810006F722074726967676572206C6576656CAB
:100820003A200900302870726F6772616D6D6564DF
:1008300029003128756E70726F6772616D6D656425
:1008400029003228424F444C4556454C32294272C9
:100850006F776E2D6F7574206465746563746F7245
:100860002074726967676572206C6576656C3A20E2
:100870000900302870726F6772616D6D65642900C0
:100880003128756E70726F6772616D6D65642900D5
:100890003028424F4F545253542953656C6563744A
:1008A00020726573657420766563746F723A2009EF
:1008B000090900302870726F6772616D6D65642977
:1008C000003128756E70726F6772616D6D65642995
:1008D000003128424F4F54535A302953656C656399
:1008E0007420626F6F742073697A653A2009090970
:1008F00000302870726F6772616D6D656429003118
:1009000028756E70726F6772616D6D656429003253
:1009100028424F4F54535A312953656C65637420F4
:10092000626F6F742073697A653A20090909003093
:100930002870726F6772616D6D656429003128756A
:100940006E70726F6772616D6D6564290033284542
:10095000455341564529454550524F4D2069732016
:10096000707265736572766564207768656E206362
:100970006869702065726173653A200900302870DB
:10098000726F6772616D6D656429003128756E70D4
:10099000726F6772616D6D65642900342857445425
:1009A0004F4E295761746368646F672074696D6581
:1009B0007220616C77617973204F6E3A20090900CB
:1009C000302870726F6772616D6D6564290031281F
:1009D000756E70726F6772616D6D65642900352880
:1009E000535049454E29456E61626C6520736572AE
:1009F00069616C2070726F6772616D3A2009090934
:100A000000302870726F6772616D6D656429003106
:100A100028756E70726F6772616D6D65642900363E
:100A2000284457454E2964656275675749524520E9
:100A3000656E61626C653A200909090030287072A0
:100A40006F6772616D6D656429003128756E707213
:100A50006F6772616D6D6564290037285253544485
:100A60004953424C2945787465726E616C207265F9
:100A70007365742064697361626C653A20090900CA
:100A8000302870726F6772616D6D6564290031285E
:100A9000756E70726F6772616D6D656429003028C4
:100AA000434B53454C302953656C65637420636C2C
:100AB0006F636B20736F757263653A20090030288D
:100AC00070726F6772616D6D656429003128756E93
:100AD00070726F6772616D6D656429003128434BD8
:100AE00053454C312953656C65637420636C6F63A7
:100AF0006B20736F757263653A200900302870723D
:100B00006F6772616D6D656429003128756E707252
:100B10006F6772616D6D656429003228434B5345E0
:100B20004C322953656C65637420636C6F636B2072
:100B3000736F757263653A200900302870726F67B1
:100B400072616D6D656429003128756E70726F6712
:100B500072616D6D656429003328434B53454C33F6
:100B60002953656C65637420636C6F636B20736FCE
:100B7000757263653A200900302870726F67726180
:100B80006D6D656429003128756E70726F677261D2
:100B90006D6D656429003428535554302953656CB4
:100BA0006563742073746172742D75702074696D3F
:100BB000653A200900302870726F6772616D6D654B
:100BC0006429003128756E70726F6772616D6D6592
:100BD0006429003528535554312953656C65637475
:100BE0002073746172742D75702074696D653A207C
:100BF0000900302870726F6772616D6D656429003D
:100C00003128756E70726F6772616D6D6564290051
:100C10003628434B4F555429436C6F636B206F75D7
:100C2000747075743A20090900302870726F677209
:100C3000616D6D656429003128756E70726F677221
:100C4000616D6D656429003728434B444956382946
:100C500044697669646520636C6F636B20627920F8
:100C6000383A200900203078000900203078000947
:100C70000020307800307830303200307830303139
:100C80000900307830303009005369676E6174753F
:100C900072653A200030780043616C696272617459
:100CA000696F6E20627974653A2000302870726F27
:100CB0006772616D6D656429003128756E70726FA1
:100CC0006772616D6D6564290030284C4231296C72
:100CD0006F636B206269743A2009090030287072D2
:100CE0006F6772616D6D656429003128756E707271
:100CF0006F6772616D6D6564290031284C4232293D
:100D00006C6F636B206269743A20090900302870A7
:100D1000726F6772616D6D656429003128756E7040
:100D2000726F6772616D6D656429003228424C42B2
:100D3000303129426F6F74206C6F636B206269746D
:100D40003A200900302870726F6772616D6D6564BA
:100D500029003128756E70726F6772616D6D656400
:100D600029003328424C42303229426F6F74206C84
:100D70006F636B206269743A200900302870726FCB
:100D80006772616D6D656429003128756E70726FD0
:100D90006772616D6D656429003428424C423131BF
:100DA00029426F6F74206C6F636B206269743A2004
:100DB0000900302870726F6772616D6D656429007B
:100DC0003128756E70726F6772616D6D6564290090
:100DD0003528424C42313229426F6F74206C6F6368
:100DE0006B206269743A2009006C6F636B4269740E
:100DF000733A20002F736520616464722078782034
:100E000020777269746520656570726F6D20286146
:100E10006464723A20303030307E33464646207863
:100E20003A20307E4629002F736C207878202020CD
:100E3000202020736574206C6F636B20626974736B
:100E4000202121212028783A20307E4629002F7346
:100E500066652078782020202020736574206675D0
:100E600073652065787420626974732028783A204D
:100E7000307E4629002F73666C2078782020202051
:100E8000207365742066757365206C6F77206269C6
:100E900074732028783A20307E4629002F736668C4
:100EA0002078782020202020736574206675736573
:100EB0002068696768206269747328783A20307EF8
:100EC0004629002F6765206164647220202020205D
:100ED0007265616420656570726F6D28616464720B
:100EE0003A20303030307E3033463029002F676171
:100EF0002061646472202020202072656164206675
:100F00006C61736820726F6D28616464723A20307E
:100F10003030307E3346463029002F67692020204C
:100F2000202020676574207369676E61747572652F
:100F30002062797465002F676320202020202067BD
:100F400065742063616C6962726174696F6E20629E
:100F5000797465002F676C2020202020206765743D
:100F6000206C6F636B2062697473002F6766652065
:100F7000202020206765742066757365206578746D
:100F80002062697473002F67666C20202020206720
:100F900065742066757365206C6F77206269747361
:100FA000002F676668202020202067657420667502
:100FB000736520686967682062697473002F722006
:100FC0002020202020657869742064656275672080
:100FD0006D6F6465002F64202020202020656E74D2
:100FE0006572206465627567206D6F6465003E3EC2
:100FF0003E3E3E3E3E61746D65676133323820503F
:10100000726F6772616D65723C3C3C3C3C3C3C00DD
:10101000010204081020408001020408102001028F
:10102000040810200404040404040404020202025C
:10103000020203030303030300000000250028004D
:101040002B0000000000240027002A0007191124AB
:101050001FBECFEFD8E0DEBFCDBF11E0A0E0B1E012
:10106000E8E1F8E302C005900D92A432B107D9F788
:1010700024E0A4E2B1E001C01D92AD38B207E1F76F
:1010800018E0C7E2D8E004C02197FE010E94F41BDB
:10109000C632D107C9F70E9435190C940A1C0C946A
:1010A000000026E040E950ED63E070E087EE93E059
:1010B0000E9440180E9416130C94E10B0895FC0145
:1010C0002281223641F02536B1F483E080935E031D
:1010D00061E473E015C0FC018381853631F082E064
:1010E00080935E0365E773E00BC084E080935E034A
:1010F0006BE573E005C081E080935E036EE273E010
:1011000087EE93E00E94AE1990915E03935081E0C8
:10111000923008F480E00E942E13811109C063E12F
:1011200073E087EE93E00E94AE1910925E0308957B
:101130001092600310926103109262031092630395
:10114000109258011092590110925A0110925B01AD
:1011500010925D0110925C0110925F0308956FEF91
:1011600072E087EE93E00E94AE196FEC72E087EEBA
:1011700093E00E94AE196AE472E087EE93E00E9469
:10118000AE196DEB71E087EE93E00E94AE1965E059
:1011900071E087EE93E00E94AE190E942D0E61EF80
:1011A00070E087EE93E00C94AE198091C10083FF4C
:1011B00012C069ED70E087EE93E00E94AE196AE01C
:1011C00070E080E090E00E941E1B8091C100877F4C
:1011D0008093C10008958091C10088608093C10010
:1011E0006AE070E080E090E00E941E1B62EC70E01C
:1011F00087EE93E00C94AE19DC01ED91FC91019027
:10120000F081E02D0994CF93482F50E047305105ED
:1012100010F5FA01EC5CFF4F0C94F41B60E071E0F8
:1012200087EE93E0CF910C94C0196AE574E002C098
:1012300069E374E087EE93E0CF910C94AE1969E115
:1012400074E0F8CF67EF73E0F5CF62ED73E0F2CFB3
:1012500065EA73E0EFCFC82F62E973E087EE93E0B1
:101260000E9484194AE050E06C2F87EE93E0CF9102
:101270000C94281A10925E0368E873E087EE93E0FE
:101280000C94AE198F929F92AF92BF92CF92DF9241
:10129000EF92FF920F931F93CF93DF931F92CDB7DF
:1012A000DEB770E0C42ED12CC61AD70A4AE0C416A5
:1012B000D10414F482E07EC07901A9014B5C5F4F38
:1012C0008C01060F171FF801618180810E94301781
:1012D000811102C081E06EC0F701B5A8F2E3FB15F1
:1012E00010F483E067C042E0B49EC018D108112416
:1012F0008AE0C816D104F4F24701EFEF8E1A9E0A75
:10130000A401F801638182810E943017882311F3C0
:10131000F701D1801182D282A401F8016581848114
:101320000E9430178823B1F2F701C180A701F801AC
:10133000678186810E943017882361F2F7018081DE
:101340008B0DD80ECD0CD12CF70185A9D816E8F459
:10135000AD2CB12CD501AA0FBB1FA5014D5F5F4F6E
:101360004E0D5F1DA00FB11F19966C91199718961D
:101370008C910E943017882309F4ACCFF701EA0D55
:10138000FB1D8381C80ED394DFCFF801E80FF11D58
:10139000E80FF11DAE014F5F5F4F618580850E94B0
:1013A0003017882309F496CF9C2D919529819217A7
:1013B00029F084E080935F0380E002C010925F0315
:1013C0000F90DF91CF911F910F91FF90EF90DF90E1
:1013D000CF90BF90AF909F908F900895CF92DF9263
:1013E000EF92FF920F93CF93DF93EA0129813A8125
:1013F0006B017C01C20ED31EE11CF11C80915801CF
:1014000090915901A0915A01B0915B0120915C012A
:1014100030915D0148818C159D05AE05BF05B9F47D
:101420005DA9F901E50FF11DE130F24080F4413092
:1014300071F0850F911DA11DB11D809358019093EE
:101440005901A0935A01B0935B0180E031C05091E3
:101450005E0301E0513071F4413009F000E0BC015D
:10146000CD01621B730B810991094EE551E00E9489
:10147000B6130DC0413009F000E0BC01CD01621B84
:10148000730B810991094EE551E00E940A159DA94F
:10149000C90ED11CE11CF11CC0925801D092590117
:1014A000E0925A01F0925B0110925D0110925C0192
:1014B000E0915C01F0915D01DE011396E25AFE4F6E
:1014C0007F01BF016E5571402DA930E0AF014E196B
:1014D0005F094217530718F49D919193F2CF7093CF
:1014E0005D0160935C01DF91CF910F91FF90EF90D0
:1014F000DF90CF900895FC0110925F0380818130CE
:10150000A9F030F08230A1F1843009F443C057C013
:101510006091600370916103809162039091630315
:10152000AF010E94EE0980935F0349C060916003A0
:10153000709161038091620390916303AF010E94F7
:10154000EE0980935F031092600310926103109282
:101550006203109263031092580110925901109285
:101560005A0110925B0110925D0110925C0127C03C
:1015700085A9823021F085E080935F0308958381FF
:1015800090E0A0E0B0E0BA2FA92F982F88272481FF
:10159000822B0DC085A9823071F72481838190E070
:1015A000A0E0B0E0B82FAA2799278827A22B809324
:1015B000600390936103A0936203B09363038091EF
:1015C0005F030895CF93DF93CDB7DEB7E6970FB6ED
:1015D000F894DEBF0FBECDBF462F26E020935F03F9
:1015E000FC0120812A33D1F49E012F5F3F4F61E03F
:1015F0000E944209882391F0CE0101960E947B0A45
:1016000081110CC060E071E087EE93E00E94C01988
:101610008981813049F40E94921604C080915F0351
:101620000E9403090E943A09E6960FB6F894DEBFBD
:101630000FBECDBFDF91CF9108954F925F926F9211
:101640007F92AF92BF92CF92DF92EF92FF920F9371
:101650001F93CF93DF93CDB7DEB7C650D2400FB6FE
:10166000F894DEBF0FBECDBF8E010D5F1D4FF80198
:101670001082118212821382780184E0D82ED00E5B
:1016800087EE93E00E946B17892BD1F387EE93E0EE
:101690000E948517F70181937F01DE12F1CF60E090
:1016A00071E087EE93E00E94C01960E070E087EE81
:1016B00093E00E94FC08412C512C32015E01FFEFA7
:1016C000AF1AFDEFBF0AF80180819181A281B38139
:1016D000481659066A067B0608F059C0CE010196E5
:1016E0007C016C0187EE93E00E946B17892BD1F38C
:1016F00087EE93E00E948517F60181936F01E01752
:10170000F10781F781E020E030E0F70191917F015E
:10171000290F311D882321F081E09F3F09F080E0EF
:10172000EA14FB0491F7F7014081518142175307F6
:1017300011F084E029C090915E03882399F09230E3
:1017400089F460E071E087EE93E00E94C01960E0E8
:1017500070E087EE93E00E94FC08F2E05F0E611CEF
:10176000711CB1CFAE014F5F5F4F923029F4C301BE
:10177000B2010E94061604C0C301B2010E945816AD
:1017800080935F038823E9F20E94030902C00E944C
:1017900092160E943A09CA5FDD4F0FB6F894DEBF79
:1017A0000FBECDBFDF91CF911F910F91FF90EF90B2
:1017B000DF90CF90BF90AF907F906F905F904F90F1
:1017C0000895CF93DF93CDB7DEB7C058D1090FB6D8
:1017D000F894DEBF0FBECDBF8FEA98E0909333013F
:1017E0008093320168E970E087EE93E00E94AE19C1
:1017F0008FE598E0909343018093420185ED98E056
:1018000090934501809344010E943A0960E070E0A2
:1018100087EE93E00E94FC0861E08DE00E94951B3A
:1018200090E8E92E8E010F5F1F4FF8018E2D119267
:101830008A95E9F720E830E0A8016AE087EE93E0B6
:101840000E946F1AF82E882381F380915E03813005
:1018500081F118F0833089F52CC089818F3269F5C8
:101860006F2DC8010E942017EA81E156F0E0EE0FCB
:10187000FF1FEC5DFE4F0190F081E02D309791F05D
:101880006F2DC801099580915E03823011F084307C
:10189000A1F460E070E087EE93E00E94FC080E94F3
:1018A0001D0BC3CF66E770E087EE93E00E94AE1990
:1018B00004C06F2DC8010E94E20A60E070E087EE6C
:1018C00093E00E94FC08B1CF8EBD0DB407FEFDCFA2
:1018D0006EBD0DB407FEFDCF4EBD0DB407FEFDCFAE
:1018E0002EBD0DB407FEFDCF0895539A81E00E94EE
:1018F0009D1682E00E94A61680E00E94D51680E028
:101900000E94BB1680E00E94D81681E00E94C81693
:1019100080E00C94DB1680E00E94C8165B98539818
:1019200008951F93CF93DF93C0E1DCEA13E562E3F0
:1019300070E080E090E00E941E1BDEBD0DB407FE4B
:10194000FDCF1EBD0DB407FEFDCF1EBC0DB407FEBE
:10195000FDCF8EB51EBC0DB407FEFDCF833561F003
:101960005A9A61E070E080E090E00E941E1B5A9855
:10197000C150E9F680E001C081E0DF91CF911F9175
:10198000089520E040E060E080EF0E94640C9EB586
:1019900081E0911180E00895CF93DF93C0E0D4E01F
:1019A0000E94C10C882321F02197D1F780E001C06B
:1019B00081E0DF91CF91089520E040E060E088E58C
:1019C0000E94640C8EB50895282F40E060EE8CEAEA
:1019D0000E94640C6AE070E080E090E00E941E1BB0
:1019E0000C94CC0C20E0482F60E080E30E94640C53
:1019F0008EB5089520E040E060E080E50E94640C30
:101A00008EB50895282F40E060EA8CEA0E94640CAD
:101A10006AE070E080E090E00E941E1B0C94CC0C09
:101A200020E040E068E088E50E94640C8EB50895EF
:101A3000282F40E068EA8CEA0E94640C6AE070E0BB
:101A400080E090E00E941E1B0C94CC0C20E040E053
:101A500068E080E50E94640C8EB50895282F40E070
:101A600064EA8CEA0E94640C6AE070E080E090E036
:101A70000E941E1B0C94CC0C20E040E060E088E348
:101A80000E94640C8EB5089520E22EBD0DB407FEB1
:101A9000FDCF9EBD0DB407FEFDCF8EBD0DB407FE7C
:101AA000FDCF1EBC0DB407FEFDCF8EB5089528E214
:101AB0002EBD0DB407FEFDCF9EBD0DB407FEFDCFBC
:101AC0008EBD0DB407FEFDCF1EBC0DB407FEFDCFCD
:101AD0008EB50895EF92FF920F931F93CF93DF93EC
:101AE0001F92CDB7DEB7082F7B018FEFE81AF80AF7
:101AF00010E0F70131972081412F60E080E4998365
:101B00000E94640CF7012081412F60E088E40E946C
:101B1000640C1F5FF2E0EF0EF11C9981103449F75D
:101B200020E0402F692F8CE40E94640C6AE070E092
:101B300080E090E00E941E1B0F90DF91CF911F91DB
:101B40000F91FF90EF900C94CC0C20EA2EBD0DB4B9
:101B500007FEFDCF9EBD0DB407FEFDCF8EBD0DB4BB
:101B600007FEFDCF1EBC0DB407FEFDCF8EB5089558
:101B7000EF92FF920F931F93CF93DF931F92CDB7F6
:101B8000DEB7E82E8B01F12CF80121918F014F2D4A
:101B900060E081EC99830E94640CF3949981F4E0F5
:101BA000FF12F2CF20E04E2D692F82EC0E94640CD0
:101BB00068E070E080E090E00E941E1B0F90DF91D3
:101BC000CF911F910F91FF90EF900C94CC0C262F8A
:101BD000482F692F80EC0E94640C6AE070E080E07E
:101BE00090E00E941E1B0C94CC0C20E040E060E8CA
:101BF0008CEA0E94640C62E170E080E090E00E9458
:101C00001E1B0C94CC0C86E090E00E9414170E94DE
:101C1000750C529A5A9A61E070E080E090E00E9460
:101C20001E1B5A980C94910C5A9852980C948B0C39
:101C30000E94140E63E475E087EE93E00C94AE19F5
:101C40000E94030E882319F061E375E002C068E189
:101C500075E087EE93E00C94AE196EEE7FE087EEB0
:101C600093E00E94AE1965ED7FE087EE93E00E945D
:101C7000AE196DEB7FE087EE93E00E94AE1961EA4A
:101C80007FE087EE93E00E94AE1966E87FE087EE82
:101C900093E00E94AE196BE67FE087EE93E00E942E
:101CA000AE1964E57FE087EE93E00E94AE1966E32B
:101CB0007FE087EE93E00E94AE196AE17FE087EE55
:101CC00093E00E94AE196DEE7EE087EE93E00E94F5
:101CD000AE1963EC7EE087EE93E00E94AE196CE9EA
:101CE0007EE087EE93E00E94AE1965E77EE087EE26
:101CF00093E00E94AE196EE47EE087EE93E00E94CE
:101D0000AE1967E27EE087EE93E00E94AE1964EFC1
:101D10007DE087EE93E00C94AE19EF92FF921F9353
:101D2000CF93DF9300D01F92CDB7DEB77C01162F83
:101D3000872F19821A821B82AE014E5F5F4FBE0150
:101D40006F5F7F4F0E945817B70187EE93E00E94A4
:101D50008419BE016F5F7F4F87EE93E00E94A81940
:101D6000AE014E5F5F4FBE016F5F7F4F812F0E94BC
:101D70005817BE016F5F7F4F87EE93E00E94A8194E
:101D80000F900F900F90DF91CF911F91FF90EF90E8
:101D900008950F931F93CF93DF9300D01F92CDB779
:101DA000DEB78C01862F19821A821B82AE014E5F2C
:101DB0005F4FBE016F5F7F4F0E945817B80187EEDB
:101DC00093E00E948419BE016F5F7F4F87EE93E01E
:101DD0000E94A8190F900F900F90DF91CF911F9143
:101DE0000F9108950F931F93CF93DF9300D01F920D
:101DF000CDB7DEB78C01862F19821A821B82AE0105
:101E00004E5F5F4FBE016F5F7F4F0E945817B80152
:101E100087EE93E00E948419BE016F5F7F4F87EECB
:101E200093E00E94C0190F900F900F90DF91CF9117
:101E30001F910F910895CF9369EE7DE087EE93E0B7
:101E40000E94AE190E94DC0CC82F60ED7DE087EE89
:101E500093E00E948419C5FD03C062EB7DE002C0DF
:101E600060EC7DE087EE93E00E94AE1969E97DE0C9
:101E700087EE93E00E948419C4FD03C06BE77DE008
:101E800002C069E87DE087EE93E00E94AE1962E649
:101E90007DE087EE93E00E948419C3FD03C064E4F3
:101EA0007DE002C062E57DE087EE93E00E94AE191E
:101EB0006BE27DE087EE93E00E948419C2FD03C0CF
:101EC0006DE07DE002C06BE17DE087EE93E00E9473
:101ED000AE196AEF7CE087EE93E00E948419C1FDA1
:101EE00003C06CED7CE002C06AEE7CE087EE93E01C
:101EF0000E94AE1969EC7CE087EE93E00E948419A1
:101F0000C0FD03C06BEA7CE002C069EB7CE087EEB9
:101F100093E0CF910C94AE1968E97CE087EE93E0F2
:101F20000E9484190E943C0D682F85E99CE00C9466
:101F3000F20E69E87CE087EE93E00E94AE1962E859
:101F40007CE087EE93E00E9484196BE77CE087EEEB
:101F500093E00E94841965E77CE087EE93E00E949D
:101F6000AE1980E00E94F20C682F81E79CE00E948D
:101F7000C90E6FE67CE087EE93E00E94841981E051
:101F80000E94F20C682F8BE69CE00E94C90E69E665
:101F90007CE087EE93E00E94841982E00E94F20CBC
:101FA000682F85E69CE00C94F20ECF93C82F67E46F
:101FB0007CE087EE93E00E948419C7FD03C069E2CC
:101FC0007CE002C067E37CE087EE93E00E94AE19FC
:101FD00060E17CE087EE93E00E948419C6FD03C0B7
:101FE00062EF7BE002C060E07CE087EE93E00E945D
:101FF000AE1963ED7BE087EE93E00E948419C5FD86
:1020000003C065EB7BE002C063EC7BE087EE93E00E
:102010000E94AE1966E97BE087EE93E00E94841986
:10202000C4FD03C068E77BE002C066E87BE087EEA2
:1020300093E00E94AE1968E57BE087EE93E00E9492
:102040008419C3FD03C06AE37BE002C068E47BE05F
:1020500087EE93E00E94AE196AE17BE087EE93E0A1
:102060000E948419C2FD03C06CEF7AE002C06AE0EE
:102070007BE087EE93E00E94AE196CED7AE087EE8C
:1020800093E00E948419C1FD03C06EEB7AE002C0A8
:102090006CEC7AE087EE93E00E94AE196EE97AE08C
:1020A00087EE93E00E948419C0FD03C060E87AE0E7
:1020B00002C06EE87AE087EE93E0CF910C94AE19FF
:1020C000CF93C82F6AE57AE087EE93E00E948419E7
:1020D000C7FD03C06CE37AE002C06AE47AE087EEF1
:1020E00093E00E94AE196FE17AE087EE93E00E94E0
:1020F0008419C6FD03C061E07AE002C06FE07AE0B7
:1021000087EE93E00E94AE196EED79E087EE93E0E2
:102110000E948419C5FD03C060EC79E002C06EEC3A
:1021200079E087EE93E00E94AE196BE979E087EEE3
:1021300093E00E948419C4FD03C06DE779E002C0FA
:102140006BE879E087EE93E00E94AE196DE479E0E8
:1021500087EE93E00E948419C3FD03C06FE279E02B
:1021600002C06DE379E087EE93E00E94AE196FE064
:1021700079E087EE93E00E948419C2FD03C061EF0D
:1021800078E002C06FEF78E087EE93E00E94AE192E
:1021900061ED78E087EE93E00E948419C1FD03C0F1
:1021A00063EB78E002C061EC78E087EE93E00E9498
:1021B000AE1960E978E087EE93E00E948419C0FDD3
:1021C00003C062E778E002C060E878E087EE93E061
:1021D000CF910C94AE19CF93C82F62E478E087EECC
:1021E00093E00E948419C2FD03C064E278E002C05B
:1021F00062E378E087EE93E00E94AE1964EF77E047
:1022000087EE93E00E948419C1FD03C066ED77E07C
:1022100002C064EE77E087EE93E00E94AE1966EAB2
:1022200077E087EE93E00E948419C0FD03C068E860
:1022300077E002C066E977E087EE93E0CF910C94F7
:10224000AE19FC0183818836C1F08C3661F0853689
:10225000F1F463EA76E087EE93E00E94AE190E9403
:10226000260D0C94EB106CE377E087EE93E00E9470
:10227000AE190E94FA0C0C94D50F6FEE76E087EE43
:1022800093E00E94AE190E94100D0C94601064E956
:1022900076E087EE93E00C94AE19CF92DF92FF9236
:1022A0000F931F93CF93DF9300D0CDB7DEB78C0190
:1022B000AE014E5F5F4FFC01658184810E94301743
:1022C0008823D9F1AE014F5F5F4FF80167818681A6
:1022D0000E943017882389F10A8110E0102F00270F
:1022E0008981082BB8018DE896E00E948D0E6BE87D
:1022F00076E087EE93E00E9484196801F0E1CF0E4A
:10230000D11CC8010E94570DF82EC8010E94440D2F
:102310006F2D70E0762F6627682B89E896E00E9483
:102320008D0E0F5F1F4F0C151D0559F767E171E00A
:1023300087EE93E00E94C01906C060E776E087EE62
:1023400093E00E94AE190F900F90DF91CF911F91F3
:102350000F91FF90DF90CF900895EF92FF920F932F
:102360001F93CF93DF9300D0CDB7DEB78C01AE01C2
:102370004E5F5F4FFC01658184810E943017882386
:1023800099F1AE014F5F5F4FF801678186810E942E
:102390003017882349F10A8110E0102F0027898126
:1023A000082BB80188E696E00E948D0E66E676E07E
:1023B00087EE93E00E9484197801F0E1EF0EF11CA2
:1023C000C8010E94A50D682F84E696E00E94C90E00
:1023D0000F5F1F4F0E151F0599F767E171E087EE3C
:1023E00093E00E94C01906C06BE476E087EE93E0AC
:1023F0000E94AE190F900F90DF91CF911F910F9116
:10240000FF90EF900895FC0122812536A9F034F465
:10241000213681F0233691F40C948C0F293641F04B
:102420002C3621F0263651F40C9421110C941B0FFC
:102430000C94990F0C944D110C94AD116AEF75E04A
:1024400087EE93E00C94AE19DF92EF92FF920F9318
:102450001F93CF93DF9300D01F92CDB7DEB77C01DF
:10246000AE014D5F5F4FFC01658184810E94301792
:10247000882371F1AE014E5F5F4FF701678186815E
:102480000E943017882321F1DB800A81AE014F5F63
:102490005F4FF701628581850E9430178823C1F064
:1024A00010E01D29B8018DE396E00E948D0E698130
:1024B00088E396E00E94F20E6981C8010E94E70D50
:1024C000811103C062E276E005C06EE176E002C0F1
:1024D0006EE076E087EE93E00E94AE190F900F90C9
:1024E0000F90DF91CF911F910F91FF90EF90DF90B0
:1024F00008950F931F93CF93DF931F92CDB7DEB74D
:102500008C01AE014F5F5F4FFC01668185810E94A7
:1025100030178823E1F1F8018381883611F18C3678
:1025200089F08536A1F566EC75E087EE93E00E94B0
:102530008419698183EC95E00E94F20E89810E94E2
:102540002E0D1DC06BEE75E087EE93E00E9484199E
:10255000698188EE95E00E94F20E89810E94020D49
:102560000EC068ED75E087EE93E00E9484196981E2
:1025700085ED95E00E94F20E89810E94180D81116F
:1025800003C061EB75E005C06DEA75E002C06BE960
:1025900075E087EE93E00E94AE190F90DF91CF9126
:1025A0001F910F910895CF93DF931F92CDB7DEB7A0
:1025B000AE014F5F5F4FFC01658184810E9430173F
:1025C0008823B1F06BE875E087EE93E00E948419F0
:1025D000698188E895E00E94F20E89810E94E40CEE
:1025E000811103C061E775E005C06DE675E002C0CA
:1025F00062E675E087EE93E00E94AE190F90DF91DE
:10260000CF910895FC012281263631F02C3631F02D
:10261000253631F40C9424120C9479120C94D312B4
:1026200064E575E087EE93E00C94AE19E4E2F1E026
:1026300088E19EE093A382A380E29EE09783868355
:1026400083E092E19587848782E093E195A384A358
:1026500069EE74E087EE93E00C94AE19CF93C82F27
:1026600069ED74E087EE93E00E94AE191092660364
:102670001092650310926403CC2381F06BEC74E03C
:1026800087EE93E00E94AE190E94F50D811106C0FD
:102690006EEA74E087EE93E00E94AE1981E0CF917C
:1026A00008958F929F92AF92BF92CF92DF92EF9256
:1026B000FF920F931F93CF93DF93EC016B017B018C
:1026C00000E010E0CE010E94440DB82ECE010E9421
:1026D000570DA82EF70180814601800E911E8B11A7
:1026E00004C0F40181818A1549F1BE0188EA94E0B1
:1026F0000E948D0E64EA74E087EE93E00E948419D4
:10270000F401618183EA94E00E94C90EF7016081BF
:1027100082EA94E00E94C90E6DE974E087EE93E0CE
:102720000E9484196A2D8CE994E00E94C90E6B2DD9
:102730008BE994E00E94F20E80E00BC021960E5FC0
:102740001F4FF2E0EF0EF11C0038110509F0BACF6F
:1027500081E0DF91CF911F910F91FF90EF90DF907B
:10276000CF90BF90AF909F908F9008958F929F923F
:10277000AF92BF92CF92DF92EF92FF920F93CF93DF
:10278000DF93C62F6A017901862E972EA0906403ED
:10279000B090650320916603822F90E0AC014A0D52
:1027A0005B1D8416950608F4D8C0222381F120E829
:1027B0002A0D30E08216930650F140E850E0481BA5
:1027C000590B6FEF70E089599C4F0E94031CB6941F
:1027D000A79467E673E0C5010E946A0D811102C0EB
:1027E0008AE0BEC067E673E0C5010E945113811103
:1027F00002C087E0B5C01092660380916403909197
:10280000650380589F4F90936503809364032091E4
:10281000640330916503C90180589F4F881699065B
:1028200010F09C01F8CF3093650320936403D0919E
:1028300066038D2F90E0280F391FC21B59F04C2FD3
:1028400050E06FEF70E089599C4F0E94031CCD0F40
:10285000C093660380916603C0E8C81BA12CB12C0D
:10286000D0E0EC16FD0698F18091660390E0AE0191
:10287000B6016A0D7B1D89599C4F0E94FA1B8090FE
:102880006403909065039694879467E673E0C401AF
:102890000E946A0D882309F4A3CF67E673E0C401A0
:1028A0000E945113882309F4A4CFEC1AFD0AAC0E40
:1028B000BD1E109266038091640390916503805859
:1028C0009F4F9093650380936403C0E8C9CFE114E0
:1028D000F10479F0C09166038C2F90E0B6016A0D87
:1028E0007B1DA70189599C4F0E94FA1BEC0EE092B8
:1028F00066030023A1F180916603882389F190E0AB
:1029000040E850E0481B590B6FEF70E089599C4F2D
:102910000E94031CC0916403D0916503D695C795AE
:1029200067E673E0CE010E946A0D882309F458CF50
:1029300067E673E0CE010E945113882309F459CF52
:1029400010926603809164039091650380589F4FB5
:10295000909365038093640302C088E001C080E027
:10296000DF91CF910F91FF90EF90DF90CF90BF90CC
:10297000AF909F908F9008958F929F92AF92BF9249
:10298000CF92DF92EF92FF921F93CF93DF935B0181
:1029900024E0A20EB11CEB014C01861A970A6401D7
:1029A000CC0EDD1EC6010E94A50D182F7E012196BA
:1029B000F70180818117F1F0B60185E994E00E946A
:1029C0008D0E61E974E087EE93E00E948419F701AF
:1029D000608180E994E00E94C90E6BE874E087EEA4
:1029E00093E00E948419612F8AE894E00E94F20E1D
:1029F00080E004C0CA15DB0591F681E0DF91CF913C
:102A00001F91FF90EF90DF90CF90BF90AF909F907D
:102A10008F9008958F929F92AF92BF92CF92DF9244
:102A2000EF92FF920F93CF93DF93C62F6A01790144
:102A3000A62EB72E809064039090650320916603C4
:102A4000822F90E0AC01480D591DA416B50608F47C
:102A5000CEC0222369F124E0280D30E0A216B3068F
:102A600038F144E050E0481B590B6FEF70E0895992
:102A70009C4F0E94031C67E673E0C4010E94B80DDE
:102A8000811102C08AE0B6C067E673E0C4010E940B
:102A9000BC14811102C087E0ADC010926603809122
:102AA0006403909165030496909365038093640397
:102AB0002091640330916503C9010496A816B906F4
:102AC00010F09C01F9CF3093650320936403D091FB
:102AD00066038D2F90E0280F391FC21B59F04C2F31
:102AE00050E06FEF70E089599C4F0E94031CCD0F9E
:102AF000C093660380916603C4E0C81BA12CB12C6F
:102B0000D0E0EC16FD0680F18091660390E0AE0106
:102B1000B6016A0D7B1D89599C4F0E94FA1B80905B
:102B200064039090650367E673E0C4010E94B80DEA
:102B3000882309F4A7CF67E673E0C4010E94BC14A0
:102B4000882309F4A8CFEC1AFD0AAC0EBD1E109222
:102B500066038091640390916503049690936503E6
:102B600080936403C4E0CCCFE114F10479F0C09108
:102B700066038C2F90E0B6016A0D7B1DA701895971
:102B80009C4F0E94FA1BEC0EE0926603002389F131
:102B900080916603882371F190E044E050E0481B87
:102BA000590B6FEF70E089599C4F0E94031CC09134
:102BB0006403D091650367E673E0CE010E94B80D0F
:102BC000882309F45FCF67E673E0CE010E94BC144E
:102BD000882309F460CF109266038091640390917A
:102BE00065030496909365038093640302C088E0B4
:102BF00001C080E0DF91CF910F91FF90EF90DF90C7
:102C0000CF90BF90AF909F908F9008954F925F921A
:102C10006F927F92AF92BF92CF92DF92EF92FF922C
:102C20000F931F93CF93DF936B017C015A01EA014D
:102C300000E010E000581F4FFE01CF018A199B09E8
:102C40008017910720F481918F3FB9F30DC080E880
:102C5000C80ED11CE11CF11CC058DF4F011582E0E9
:102C6000180741F780E015C0260137017694679474
:102C700057944794BE01C2010E946A0D882341F017
:102C8000BE01C2010E9451138111E1CF87E001C052
:102C90008AE0DF91CF911F910F91FF90EF90DF902D
:102CA000CF90BF90AF907F906F905F904F900895BE
:102CB0008F929F92AF92BF92CF92DF92EF92FF924C
:102CC0000F931F93CF93DF934B015C016A01C0E028
:102CD000D0E08E01080D191D7601EC0EFD1EB70126
:102CE000C8010E94B80D882369F0B701C8010E948D
:102CF000BC14882349F02496C11582E0D80749F70F
:102D000080E003C08AE001C087E0DF91CF911F918E
:102D10000F91FF90EF90DF90CF90BF90AF909F907A
:102D20008F9008956BE774E087EE93E00E94AE19F0
:102D300060E080E090E00C94180EE1EBF0E0908110
:102D4000987F90839081892B80830895E0EBF0E059
:102D500090819C7F90839081282F2370922B908369
:102D6000E1EBF0E09081977F908390818470880FF1
:102D7000892B80830895E0EBF0E090819F7390832E
:102D8000208130E4839FC0011124822B8083089529
:102D9000E0EBF0E090819F7C9083208130E1839F85
:102DA000C0011124822B808308958093B20008957E
:102DB0008093B30008958093B40008958230910504
:102DC000B9F038F4009771F0019721F58DB58E7F39
:102DD0000BC084309105A9F070F00597D9F48DB53A
:102DE0008E7F11C08DB581608DBD8CB58D7F0EC07D
:102DF0008DB5816002C08DB58E7F8DBD8CB58D7F08
:102E00000EC08DB581608DBD8CB582608CBD8CB5DA
:102E10008E7F08C08DB58E7F8DBD8CB582608CBDD8
:102E20008CB581608CBD0895259A239A2498229AA6
:102E300020E12CBD0E94DE168CB580648CBD089507
:102E4000282FFC018E2F821B861748F480819FEB70
:102E5000980F9A3110F4805E80833196F3CF0895F5
:102E6000673434F4613454F460536A3040F01EC067
:102E70009FE9960F9630D0F4675501C067538734A9
:102E800034F4813454F480538A3040F00FC09FE909
:102E9000980F963058F4875501C0875390E1899F69
:102EA000600D1124FA01608381E0089580E00895A7
:102EB000982F92959F709A3010F4905D01C0995CA4
:102EC000FB0190838F708A3010F4805D01C0895CB3
:102ED000FA0180830895FC01918D228D892F90E065
:102EE000805C9F4F821B91098F7399270895FC0185
:102EF000918D828D981731F0828DE80FF11D858DAF
:102F000090E008958FEF9FEF0895FC01918D828DE1
:102F1000981761F0828DDF01A80FB11D5D968C912D
:102F2000928D9F5F9F73928F90E008958FEF9FEF38
:102F30000895FC01538D448D252F30E0842F90E0BF
:102F4000821B930B541710F0CF96089501970895A4
:102F50008DEF98E1892B49F080E090E0892B29F0F2
:102F60000E94FD1881110C9400000895FC01848DCD
:102F7000DF01A80FB11DA35ABF4F2C91848D90E0A3
:102F800001968F739927848FA689B7892C93A0897E
:102F9000B1898C9180648C93938D848D981306C035
:102FA0000288F389E02D80818F7D80830895CF93FF
:102FB000DF93EC01888D8823C9F0EA89FB89808141
:102FC00085FD05C0A889B9898C9186FD0FC00FB613
:102FD00007FCF5CF808185FFF2CFA889B9898C9154
:102FE00085FFEDCFCE010E94B617E7CFDF91CF91DD
:102FF0000895EF92FF920F931F93CF93DF93EC010D
:1030000081E0888F9B8D8C8D981305C0E889F989A4
:10301000808185FD24C0F62E0B8D10E00F5F1F4FC1
:103020000F731127E02E8C8DE8120CC00FB607FC31
:10303000FACFE889F989808185FFF5CFCE010E941A
:10304000B617F1CF8B8DFE01E80FF11DE35AFF4F4C
:10305000F0820B8FEA89FB898081806207C0EE894C
:10306000FF896083E889F98980818064808381E0B9
:1030700090E0DF91CF911F910F91FF90EF90089515
:10308000CF92DF92EF92FF921F93CF93DF93EC01E9
:103090006A017B01122FE889F98982E0808341155A
:1030A000514E61057105B1F060E079E08DE390E08B
:1030B000A70196010E94D21BDA01C9010197A1095B
:1030C000B109B695A79597958795AC01411580E113
:1030D0005807A8F0E889F989108260E874E88EE161
:1030E00090E0A70196010E94D21BBA01A9014150AC
:1030F0005109610971097695679557954795EC8552
:10310000FD855083EE85FF854083188EEC89FD890F
:103110001083EA89FB89808180618083EA89FB8949
:10312000808188608083EA89FB89808180688083D0
:10313000EA89FB8980818F7D8083DF91CF911F9108
:10314000FF90EF90DF90CF9008951F920F920FB6EF
:103150000F9211242F938F939F93EF93FF93E091FE
:10316000F703F091F8038081E091FD03F091FE03F5
:1031700082FD12C09081809100048F5F8F73209137
:103180000104821751F0E0910004F0E0E951FC4F96
:10319000958F8093000401C08081FF91EF919F91F2
:1031A0008F912F910F900FBE0F901F9018951F9227
:1031B0000F920FB60F9211242F933F934F935F936B
:1031C0006F937F938F939F93AF93BF93EF93FF93EF
:1031D00087EE93E00E94B617FF91EF91BF91AF91F8
:1031E0009F918F917F916F915F914F913F912F911F
:1031F0000F900FBE0F901F90189587EE93E00E94DE
:103200006B1721E0892B09F420E0822F0895E7EE67
:10321000F3E01382128288EE93E0A0E0B0E08483B2
:103220009583A683B78387E091E09183808385ECC3
:1032300090E09587848784EC90E09787868780EC80
:1032400090E0918B808B81EC90E0938B828B82EC71
:1032500090E0958B848B86EC90E0978B868B118E1B
:10326000128E138E148E089508950E945A1B0E9488
:1032700034190E945108C8EAD7E10E945E082097DD
:10328000E1F30E94A817F9CFCF92DF92EF92FF925D
:103290000F931F93CF93DF936C017A018B01C0E0F2
:1032A000D0E0CE15DF0589F0D8016D918D01D601F2
:1032B000ED91FC910190F081E02DC6010995892BDB
:1032C00011F47E0102C02196ECCFC701DF91CF91AE
:1032D0001F910F91FF90EF90DF90CF9008956115AF
:1032E000710579F0FB0101900020E9F73197AF01FA
:1032F000461B570BDC01ED91FC910280F381E02D20
:10330000099480E090E00895EF92FF920F931F934D
:10331000CF93DF938C017B01C0E0D0E0F701EC0F8D
:10332000FD1F6491662361F0D801ED91FC9101903D
:10333000F081E02DC8010995892B11F02196EECF7F
:10334000CE01DF91CF911F910F91FF90EF900895E3
:103350000C946F1965E171E00C946F190F931F9332
:10336000CF93DF93EC010E9484198C01CE010E945F
:10337000AA19800F911FDF91CF911F910F9108958E
:103380000F931F93CF93DF93EC010E946F198C0171
:10339000CE010E94AA19800F911FDF91CF911F913A
:1033A0000F9108954F925F926F927F92EF92FF92EA
:1033B0000F931F93CF93DF93CDB7DEB7A1970FB6CF
:1033C000F894DEBF0FBECDBF7C01FA01CB0119A27C
:1033D000223008F42AE08E010F5D1F4F422E512C3F
:1033E000612C712CBF01A30192010E94D21BF90133
:1033F000CA01015011096A3014F4605D01C0695CB2
:10340000D8016C93232B242B252B61F7B801C7011E
:103410000E946F19A1960FB6F894DEBF0FBECDBF04
:10342000DF91CF911F910F91FF90EF907F906F9060
:103430005F904F9008952115310541F4DC01ED9125
:10344000FC910190F081E02D642F09940C94D21925
:103450000F931F93CF93DF93EC019A01462F50E017
:1034600060E070E00E941B1A8C01CE010E94AA1934
:10347000800F911FDF91CF911F910F9108950F93AE
:103480001F93CF93DF93EC010E94ED1A6887798731
:103490008A879B87E881F9810284F385E02DCE013C
:1034A000099597FF17C00E94ED1A088519852A858E
:1034B0003B85DC01CB01801B910BA20BB30B0C8174
:1034C0001D812E813F8180179107A207B30710F35A
:1034D0008FEF9FEFDF91CF911F910F910895AF92E2
:1034E000BF92CF92DF92EF92FF920F931F93CF93F1
:1034F000DF9321153105D1F079015C016A01C0E04B
:10350000D0E0062F660F110BC5010E943F1A97FFEE
:1035100002C0CE010DC080179107D9F3F601819347
:103520006F012196CE15DF0579F7F3CF80E090E0AB
:10353000DF91CF911F910F91FF90EF90DF90CF908F
:10354000BF90AF9008951F920F920FB60F92112463
:103550002F933F938F939F93AF93BF938091850455
:1035600090918604A0918704B091880430918404DE
:1035700023E0230F2D3720F40196A11DB11D05C0B6
:1035800026E8230F0296A11DB11D20938404809389
:10359000850490938604A0938704B0938804809157
:1035A000890490918A04A0918B04B0918C040196B7
:1035B000A11DB11D8093890490938A04A0938B046C
:1035C000B0938C04BF91AF919F918F913F912F91B8
:1035D0000F900FBE0F901F9018952FB7F894609121
:1035E00085047091860480918704909188042FBF90
:1035F00008953FB7F8948091890490918A04A0912E
:103600008B04B0918C0426B5A89B05C02F3F19F000
:103610000196A11DB11D3FBFBA2FA92F982F882752
:10362000820F911DA11DB11DBC01CD0142E0660FAD
:10363000771F881F991F4A95D1F708958F929F92FF
:10364000AF92BF92CF92DF92EF92FF926B017C011B
:103650000E94F91A4B015C01C114D104E104F10488
:1036600001F10E94D11B0E94F91ADC01CB018819DB
:103670009909AA09BB09883E9340A105B10560F3E9
:1036800021E0C21AD108E108F10888EE880E83E033
:10369000981EA11CB11CC114D104E104F10419F756
:1036A000DBCFFF90EF90DF90CF90BF90AF909F90D7
:1036B0008F900895789484B5826084BD84B58160CC
:1036C00084BD85B5826085BD85B5816085BDEEE62A
:1036D000F0E0808181608083E1E8F0E01082808109
:1036E00082608083808181608083E0E8F0E0808177
:1036F00081608083E1EBF0E0808184608083E0EB97
:10370000F0E0808181608083EAE7F0E0808184607E
:1037100080838081826080838081816080838081DA
:10372000806880831092C1000895CF93DF9390E06A
:10373000FC01E05FFF4E2491FC01EC5DFF4E8491A3
:10374000882361F190E0880F991FFC01EE5BFF4E2A
:10375000C591D491FC01E85CFF4EA591B491611133
:1037600009C09FB7F8948881209582238883EC91C3
:103770002E230BC0623061F49FB7F8943881822FFA
:10378000809583238883EC912E2B2C939FBF06C0BA
:103790008FB7F894E8812E2B28838FBFDF91CF91CC
:1037A00008950895A1E21A2EAA1BBB1BFD010DC0AE
:1037B000AA1FBB1FEE1FFF1FA217B307E407F507E1
:1037C00020F0A21BB30BE40BF50B661F771F881FBD
:1037D000991F1A9469F760957095809590959B0153
:1037E000AC01BD01CF010895EE0FFF1F0590F491CC
:1037F000E02D0994FB01DC0102C001900D924150C3
:103800005040D8F70895DC0101C06D9341505040FD
:08381000E0F70895F894FFCFE2
:103818006F6B0000000000F91744199917D7176B50
:1038280017851777170D0A006E616E00696E6600BE
:043838006F76660041
:00000001FF
