:100000000C940E060C9436060C9436060C943606A8
:100010000C9436060C9436060C9436060C94360670
:100020000C9436060C9436060C9436060C94360660
:100030000C9436060C9436060C9436060C94360650
:100040000C94541A0C9436060C94F7170C94291837
:100050000C9436060C9436060C9436060C94360630
:100060000C9436060C943606F506FC06FF060607C9
:1000700009070C070F07556E6B6E6F776E20436D87
:10008000642120696E707574202F6820746F20675A
:1000900065742068656C70006D792070726F67728E
:1000A000616D65722073746172742C20696E707555
:1000B00074202F6820746F206765742068656C70E9
:1000C00021005553415254207472616E736D6974EE
:1000D00020656E61626C6521005553415254207455
:1000E00072616E736D69742064697361626C6521FD
:1000F000002D2D2D2D2D2D2D2D2D2D2D2D2D2D2D5D
:100100002D2D2D2D002F70622020202020656E7453
:1001100065722070726F6772616D206D6F64652CFF
:1001200020796F752063616E2073656E642062694B
:100130006E2066696C65202735313262797465738B
:100140002064617461202B203262797465322063EF
:100150006865636B73756D272C206966206C656E0E
:100160003D302069742066696E6973682070726F13
:100170006772616D2C2069662070726F6772616DA5
:1001800020737563636573732069742077696C6C81
:100190002072657475726E20276F6B272C206F7428
:1001A000686572776973652C20697420726574754F
:1001B000726E7320657272206D736721002F7065F7
:1001C000202020202020656E7465722070726F6779
:1001D00072616D20454550524F4D206D6F64652C06
:1001E00020796F752063616E2073656E6420686589
:1001F000782066696C6520726F7720627920726F53
:10020000772C2069662070726F6772616D2073753C
:1002100063636573732069742077696C6C20726501
:100220007475726E20276F6B272C206F746865724F
:10023000776973652C2069742072657475726E73AA
:1002400020657272206D736721002F70202020209E
:100250002020656E7465722070726F6772616D2008
:100260006D6F64652C20796F752063616E207365F6
:100270006E64206865782066696C6520726F7720EF
:10028000627920726F772C2069662070726F6772B6
:10029000616D20737563636573732069742077697A
:1002A0006C6C2072657475726E20276F6B272C2022
:1002B0006F74686572776973652C20697420726544
:1002C0007475726E7320657272206D736721002FD2
:1002D00071202020202020656E61626C65206F7285
:1002E00020646973616C626520554E4F20555341FF
:1002F0005254205472616E736D6974746572002D6E
:100300002D2D2D2D2D2D68656C702D2D2D2D2D2D28
:100310002D2D00656E7465722070726F6772616D4D
:10032000206D6F6465206661696C65642100707280
:100330006F6772616D206D6F646528484558293A72
:100340000070726F6772616D206D6F64652845453E
:1003500050524F4D20484558293A0070726F6772CD
:10036000616D206D6F646528454550524F4D2042A8
:10037000494E293A0070726F6772616D206D6F642B
:10038000652842494E293A00636D64206D6F6465AB
:100390003A006572722120556E6B6E6F776E206524
:1003A00072723A2000657272212070726F677261FA
:1003B0006D206572723A2068657820726F77206EC2
:1003C0006F207374617274207769746820273A27EC
:1003D0002100657272212070726F6772616D2065F5
:1003E00072723A2064617461206C656E6774682073
:1003F0006572726F72210065727221207061727372
:1004000065206572723A20636865636B2073756D51
:10041000206661696C6564210065727221207061DB
:10042000727365206572723A206C656E677468201D
:10043000746F206C6F6E672100657272212070618D
:10044000727365206572723A206C656E67746820FD
:10045000746F2073686F727421006572722120704E
:1004600061727365206572723A206E6F2061206838
:10047000657820737472696E6721006166746572B5
:100480002070726F6772616D2100203D3E20002058
:100490003A200061646472200065726173696E675E
:1004A00020636869702E2E2E00656E61626C652077
:1004B000444D41206661696C656421006265666F28
:1004C00072652070726F6772616D21002D2D2D2D68
:1004D0002D3E4E6F746963653A2038303531206D9A
:1004E0006375206973202762696720656E6469619E
:1004F0006E27213C2D2D2D2D2D00796F75207368D1
:100500006F756C6420696E707574202F6420746F31
:1005100020656E746572206465627567206D6F6416
:10052000652066697273742100656E74657220645B
:1005300065627567206D6F64652100657869742058
:100540006465627567206D6F6465210045525220B5
:100550002F665B657C725D006368697020657261FF
:1005600073652C20726561642073746174757320E7
:100570006661696C65642100455252202F625B738D
:100580007C635D5B307E335D205B307E375D205B5E
:10059000787878785D00736574206861726477613B
:1005A000726520627265616B20706F696E742C20B9
:1005B0007265616420737461747573206661696C1F
:1005C0006564210062757273742077726974652C9A
:1005D000207265616420737461747573206661694B
:1005E0006C6564210000627572737420777269749F
:1005F000653A20006461746120746F6F2073686FC6
:10060000727421006578656320696E737472206668
:1006100061696C65642100616363207265673A20DB
:100620000000657865633A2000696E737472207407
:100630006F6F2073686F72742100455252202F63D0
:100640005B6E7C687C725D006465627567207265B4
:1006500073756D652C2072656164207374617475A7
:1006600073206661696C656421006465627567204A
:1006700068616C742C207265616420737461747598
:1006800073206661696C656421006465627567202A
:1006900073746570206E65787420696E737472204F
:1006A0006661696C656421002020202050433A2057
:1006B000307858585858002020202050433A203095
:1006C0007800616363207265673A200045525220CA
:1006D0002F675B697C707C6D7C737C637C615D00E3
:1006E000455252202F67786E5B6E5D20787878785F
:1006F0002020286E286C656E293A307E39207828B3
:1007000061646472293A307E462900726561642012
:100710007864617461206D656D6F727920666169BE
:100720006C6564210020003A0000455252202F677A
:10073000612028307E37292028787878782900723F
:1007400065616420636F6465206D656D6F727920EB
:100750006661696C6564210020003A002D007265B5
:1007600061642063757272204D454D2042616E6B4D
:10077000206661696C656421004D454D2042616EC3
:100780006B3A203078007265616420646562756739
:1007900020636F6E666967206661696C656421001D
:1007A0007265616420737461747573206661696C2D
:1007B0006564210072656164205043206661696C44
:1007C0006564210050433A203078006368697020E6
:1007D000696E666F6D6174696F6E20726561642009
:1007E0006661696C656421004B42005352414D20A3
:1007F00053697A653A2000686173206E6F742055E2
:1008000053422100686173205553422100556E6B9D
:100810006E6F776E21003235364B42003132384BE5
:10082000420036344B420033324B4200466C617317
:10083000682073697A653A20007265616420636894
:100840006970206964206661696C656421002076A6
:1008500065723A20307800636869702069643A20D4
:100860003078002F6672202020202072656164207D
:10087000616C6C20666C617368002F6665202020B7
:100880002020666C617368206572617365206368FF
:100890006970002F62636E2020202020636C6561E8
:1008A0007220686172647761726520627265616B43
:1008B000706F696E743A206E3A307E3320002F627A
:1008C000736E20622078787878202020202073654D
:1008D0007420686172647761726520627265616B11
:1008E000706F696E743A206E3A307E3320623A6DD2
:1008F000656D6F727962616E6B28307E3729207862
:100900007878783A61646472002F7778782E2E2E8A
:100910002020202020206275727374207772697401
:10092000652078782E2E2E20746F206462676461B3
:1009300074612072656769737465723B20787820F2
:100940006D6178206C656E3A203632002F657878BC
:100950002E2E2E2020202020206578656320696EB1
:100960007374722078782E2E2E3B207878206D615B
:1009700078206C656E3A2033002F6372202020208F
:100980002063707520726573756D65002F63682034
:10099000202020206370752068616C74002F636EC6
:1009A00020202020206370752073746570206E6590
:1009B000787420696E737472002F67786E5B6E5D59
:1009C000207878787820207265616420786461747A
:1009D00061206D656D3A206E3A286C656E293A305B
:1009E0007E3920782861646472293A307E46290075
:1009F0002F67612062207878787820202020726527
:100A0000616420636F6465206D656D3A20623A6DA4
:100A1000656D6F727962616E6B28307E3729207840
:100A20007878783A303030307E37464646002F6747
:100A3000632020202020676574206465627567202C
:100A4000636F6E666967002F677320202020206720
:100A500065742064656275672073746174757300D2
:100A60002F676D20202020206765742063757272C7
:100A7000204D656D2042616E6B002F677020202035
:100A800020206765742050432076616C7565002FC7
:100A900067692020202020676574206368697020C2
:100AA000696420616E642076657273696F6E002FD1
:100AB000722020202020206578697420646562758A
:100AC00067206D6F6465002F642020202020206542
:100AD0006E746572206465627567206D6F64650071
:100AE0003E3E3E3E3E3E3E636332353431205072E0
:100AF0006F6772616D65723C3C3C3C3C3C3C00095C
:100B000054494D4552535F4F46463A2000095449D7
:100B10004D45525F53555350454E443A20000953BA
:100B20004F46545F504F5745525F4D4F44453A2012
:100B30000009444D415F50415553453A20006465DA
:100B400062756720636F6E6669673A2000095354C7
:100B500041434B5F4F564552464C4F573A20000990
:100B6000504D5F4143544956453A20000950434F88
:100B70004E5F49444C453A2000094F5343494C4C81
:100B800041544F525F535441424C453A200009486A
:100B9000414C545F5354415455533A200009444545
:100BA0004255475F4C4F434B45443A200009435060
:100BB000555F48414C5445443A2000094348495048
:100BC0005F45524153455F425553593A2000646591
:100BD000627567207374617475733A2000010204B2
:100BE00008102040800102040810200102040810AF
:100BF00020040404040404040402020202020203A6
:100C0000030303030300000000250028002B00005D
:100C1000000000240027002A0000591811241FBEDC
:100C2000CFEFD8E0DEBFCDBF11E0A0E0B1E0E0E95A
:100C3000F7E302C005900D92A633B107D9F724E07F
:100C4000A6E3B1E001C01D92AD31B207E1F716E0B5
:100C5000CEE0D6E004C02197FE010E94B01BCD304B
:100C6000D107C9F70E9487180C94C61B0C9400008A
:100C700026E040E950ED63E070E087E793E00E94F2
:100C800092170E941A140C94C8090895FC0122813D
:100C9000223641F02536B1F483E08093700361E49D
:100CA00073E015C0FC018381853631F082E08093CA
:100CB000700365E773E00BC084E0809370036BE51D
:100CC00073E005C081E0809370036EE273E087E714
:100CD00093E00E94071990917003935081E0923045
:100CE00008F480E00E944814811109C063E173E0B8
:100CF00087E793E00E9407191092700308951092FD
:100D00007203109273031092740310927503109281
:100D10006A0110926B0110926C0110926D01109299
:100D20006F0110926E011092710308956FEF72E0DF
:100D300087E793E00E9407196FEC72E087E793E082
:100D40000E9407196AE472E087E793E00E9407199E
:100D50006DEB71E087E793E00E94071965E071E0B1
:100D600087E793E00E9407190E942B1161EF70E062
:100D700087E793E00C9407198091C10083FF12C0AC
:100D800069ED70E087E793E00E9407196AE070E080
:100D900080E090E00E94CF1A8091C100877F80930D
:100DA000C10008958091C10088608093C1006AE00D
:100DB00070E080E090E00E94CF1A62EC70E087E77C
:100DC00093E00C940719DC01ED91FC910190F08106
:100DD000E02D0994CF93482F50E04730510510F58E
:100DE000FA01EC5CFF4F0C94B01B60E171E087E707
:100DF00093E0CF910C9419196AE574E002C069E39D
:100E000074E087E793E0CF910C94071969E174E0EF
:100E1000F8CF67EF73E0F5CF62ED73E0F2CF65EAEC
:100E200073E0EFCFC82F62E973E087E793E00E9499
:100E3000D6184AE050E06C2F87E793E0CF910C94EE
:100E4000D9191092700368E873E087E793E00C9477
:100E500007198F929F92AF92BF92CF92DF92EF923B
:100E6000FF920F931F93CF93DF931F92CDB7DEB7FF
:100E700070E0C42ED12CC61AD70A4AE0C416D10499
:100E800014F482E07EC07901A9014B5C5F4F8C01B4
:100E9000060F171FF801618180810E94821681115F
:100EA00002C081E06EC0F701B5A8F2E3FB1510F4B3
:100EB00083E067C042E0B49EC018D10811248AE0E4
:100EC000C816D104F4F24701EFEF8E1A9E0AA4016E
:100ED000F801638182810E948216882311F3F70151
:100EE000D1801182D282A401F801658184810E949F
:100EF00082168823B1F2F701C180A701F80167814A
:100F000086810E948216882361F2F70180818B0D11
:100F1000D80ECD0CD12CF70185A9D816E8F4AD2C4C
:100F2000B12CD501AA0FBB1FA5014D5F5F4F4E0D20
:100F30005F1DA00FB11F19966C91199718968C918F
:100F40000E948216882309F4ACCFF701EA0DFB1D3D
:100F50008381C80ED394DFCFF801E80FF11DE80FAD
:100F6000F11DAE014F5F5F4F618580850E94821643
:100F7000882309F496CF9C2D91952981921729F009
:100F800084E08093710380E002C0109271030F909F
:100F9000DF91CF911F910F91FF90EF90DF90CF9055
:100FA000BF90AF909F908F900895CF92DF92EF9275
:100FB000FF920F93CF93DF93EA0129813A816B016E
:100FC0007C01C20ED31EE11CF11C80916A0190913C
:100FD0006B01A0916C01B0916D0120916E01309177
:100FE0006F0148818C159D05AE05BF05B9F45DA95B
:100FF000F901E50FF11DE130F24080F4413071F06C
:10100000850F911DA11DB11D80936A0190936B0105
:10101000A0936C01B0936D0180E031C050917003DA
:1010200001E0513071F4413009F000E0BC01CD0124
:10103000621B730B8109910940E751E00E9466141D
:101040000DC0413009F000E0BC01CD01621B730B03
:101050008109910940E751E00E942B159DA9C90E15
:10106000D11CE11CF11CC0926A01D0926B01E0928C
:101070006C01F0926D0110926F0110926E01E0917F
:101080006E01F0916F01DE011396E059FE4F7F0172
:10109000BF01605771402DA930E0AF014E195F09C3
:1010A0004217530718F49D919193F2CF70936F01FB
:1010B00060936E01DF91CF910F91FF90EF90DF90E1
:1010C000CF900895FC011092710380818130A9F0C6
:1010D00030F08230A1F1843009F443C057C06091F0
:1010E0007203709173038091740390917503AF0143
:1010F0000E94D5078093710349C06091720370917B
:1011000073038091740390917503AF010E94D5071A
:101110008093710310927203109273031092740300
:101120001092750310926A0110926B0110926C017B
:1011300010926D0110926F0110926E0127C085A967
:10114000823021F085E0809371030895838190E0DF
:10115000A0E0B0E0BA2FA92F982F88272481822BF6
:101160000DC085A9823071F72481838190E0A0E0D1
:10117000B0E0B82FAA2799278827A22B8093720363
:1011800090937303A0937403B093750380917103DC
:101190000895CF93DF93CDB7DEB7E6970FB6F894F7
:1011A000DEBF0FBECDBF462F26E020937103FC01AA
:1011B00020812A33D1F49E012F5F3F4F61E00E94CE
:1011C0002907882391F0CE0101960E9462088111BF
:1011D0000CC060E171E087E793E00E9419198981F2
:1011E000813049F40E94961504C0809171030E94D9
:1011F000EA060E942107E6960FB6F894DEBF0FBEFE
:10120000CDBFDF91CF9108954F925F926F927F9201
:10121000AF92BF92CF92DF92EF92FF920F931F9304
:10122000CF93DF93CDB7DEB7C650D2400FB6F89458
:10123000DEBF0FBECDBF8E010D5F1D4FF8011082C6
:10124000118212821382780184E0D82ED00E87E7B3
:1012500093E00E94BD16892BD1F387E793E00E94AB
:10126000D716F70181937F01DE12F1CF60E171E0C3
:1012700087E793E00E94191960E070E087E793E048
:101280000E94E306412C512C32015E01FFEFAF1AA0
:10129000FDEFBF0AF80180819181A281B3814816D8
:1012A00059066A067B0608F059C0CE0101967C01FA
:1012B0006C0187E793E00E94BD16892BD1F387E785
:1012C00093E00E94D716F60181936F01E017F107B2
:1012D00081F781E020E030E0F70191917F01290F53
:1012E000311D882321F081E09F3F09F080E0EA145E
:1012F000FB0491F7F701408151814217530711F028
:1013000084E029C090917003882399F0923089F489
:1013100060E171E087E793E00E94191960E070E0F6
:1013200087E793E00E94E306F2E05F0E611C711C08
:10133000B1CFAE014F5F5F4F923029F4C301B201CC
:101340000E942D1504C0C301B2010E949415809320
:1013500071038823E9F20E94EA0602C00E949615F2
:101360000E942107CA5FDD4F0FB6F894DEBF0FBEA3
:10137000CDBFDF91CF911F910F91FF90EF90DF9044
:10138000CF90BF90AF907F906F905F904F900895F7
:10139000CF93DF93CDB7DEB7C058D1090FB6F8941D
:1013A000DEBF0FBECDBF86E996E0909345018093E6
:1013B000440168E970E087E793E00E94071986E43A
:1013C00096E090935501809354018CEB96E09093B6
:1013D0005701809356010E94210760E070E087E783
:1013E00093E00E94E30661E08DE00E94511B90E8CB
:1013F000E92E8E010F5F1F4FF8018E2D11928A95F5
:10140000E9F720E830E0A8016AE087E793E00E946E
:10141000201AF82E882381F380917003813081F1A6
:1014200018F0833089F52CC089818F3269F56F2DD2
:10143000C8010E947216EA81E156F0E0EE0FFF1F2C
:10144000EA5CFE4F0190F081E02D309791F06F2D16
:10145000C801099580917003823011F08430A1F4A5
:1014600060E070E087E793E00E94E3060E940409D1
:10147000C3CF66E770E087E793E00E94071904C0D6
:101480006F2DC8010E94C90860E070E087E793E013
:101490000E94E306B1CFCF93DF93D82F569AC8E0CE
:1014A0005D9AD7FF02C05E9A01C05E9881E090E02D
:1014B0000E940B1B5D9881E090E00E940B1BDD0FEA
:1014C000C15071F7DF91CF9108955E9A569820E14F
:1014D0004E9903C0282FFC0115C038E05D9A5D9835
:1014E0003150E1F72150A1F781E080937603089510
:1014F0005D9A880F000000004E9981605D989150C0
:10150000B9F781938E2F821B861718F498E080E03C
:10151000EFCF109276030895CF93DF9300D0CDB72D
:10152000DEB788E60E944B0A62E0CE0101960E9477
:10153000650A89819A810F900F90DF91CF9108956C
:10154000CF93DF9300D0CDB7DEB788E20E944B0A7D
:1015500062E0CE0101960E94650A89819A819827EE
:10156000892798270F900F90DF91CF910895CF93FF
:10157000DF931F92CDB7DEB780E60E944B0A61E091
:10158000CE0101960E94650A89810F90DF91CF916B
:101590000895CF93DF931F92CDB7DEB780E30E940B
:1015A0004B0A61E0CE0101960E94650A89810F9085
:1015B000DF91CF9108950F931F93CF93DF9300D0C6
:1015C0001F92CDB7DEB78C0188E34B836A830E94FC
:1015D0004B0AF80180810E944B0A6A81862F0E9483
:1015E0004B0A4B81842F0E944B0A61E0CE01019689
:1015F0000E94650A89810F900F900F90DF91CF9123
:101600001F910F910895CF93DF931F92CDB7DEB74F
:1016100088E50E944B0A61E0CE0101960E94650AAE
:1016200089810F90DF91CF910895CF93DF931F921F
:10163000CDB7DEB780E40E944B0A61E0CE0101968F
:101640000E94650A89810F90DF91CF910895CF9311
:10165000DF931F92CDB7DEB788E40E944B0A61E0AA
:10166000CE0101960E94650A89810F90DF91CF918A
:101670000895DF92EF92FF920F931F93CF93DF9322
:1016800000D0CDB7DEB7E82EF62E862F83708065AA
:101690009A830E944B0ADE2C0E2D9A81192F802FDF
:1016A0008D198F1530F4F80181918F010E944B0A3A
:1016B000F6CF61E0CE0101960E94650A89810F9004
:1016C0000F90DF91CF911F910F91FF90EF90DF90DE
:1016D00008951F93CF93DF931F92CDB7DEB7182FD6
:1016E00081E50E944B0A812F0E944B0A61E0CE01E6
:1016F00001960E94650A89810F90DF91CF911F9119
:1017000008951F93CF93DF9300D0CDB7DEB7182F86
:1017100082E56A830E944B0A812F0E944B0A6A81EC
:10172000862F0E944B0A61E0CE0101960E94650A55
:1017300089810F900F90DF91CF911F9108951F9392
:10174000CF93DF9300D01F92CDB7DEB7182F83E57C
:101750004B836A830E944B0A812F0E944B0A6A8145
:10176000862F0E944B0A4B81842F0E944B0A61E016
:10177000CE0101960E94650A89810F900F900F900B
:10178000DF91CF911F910895CF92DF92FF920F9337
:101790001F93CF93DF931F92CDB7DEB7F42E89014D
:1017A00090586C01462F67EC85E759830E949F0B88
:1017B0004C2D6D2D80E90E949F0BCF2C5981D52E89
:1017C0000C0D1D1DC016D10671F080EE0E94690B34
:1017D000F60181936F0180917603811106C083EA3F
:1017E0000E94690BEFCF81E001C080E00F90DF9194
:1017F000CF911F910F91FF90DF90CF900895CF92DE
:10180000DF92FF920F931F93CF93DF931F92CDB779
:10181000DEB7162F042F482F692F80E979830E94A5
:101820009F0BF12EC12E7981D72E8C2D8F19801709
:1018300070F480EE0E94690BF60181936F01809134
:101840007603811106C083EA0E94690BEECF81E026
:1018500001C080E00F90DF91CF911F910F91FF9019
:10186000DF90CF90089542E0BC0186E792E60C94A9
:10187000FF0BCF93DF931F92CDB7DEB780E20E94BC
:101880004B0A61E0CE0101960E94650A89810F90A2
:10189000DF91CF9108950F931F93CF93DF931F9202
:1018A000CDB7DEB78C0188E10E944B0AF801808138
:1018B0000E944B0A61E0CE0101960E94650A89816F
:1018C0000F90DF91CF911F910F910895DF92EF92CA
:1018D000FF920F931F93CF93DF9300D0CDB7DEB766
:1018E000D82E7B018F2D80689A830E944B0A8E2D03
:1018F0000E944B0A0D2D9A81192FE00EF11E0E1534
:101900001F0531F0F80181918F010E944B0AF7CF3A
:1019100061E0CE0101960E94650A89810F900F90C7
:10192000DF91CF911F910F91FF90EF90DF9008957D
:10193000CF93DF931F92CDB7DEB780E10E944B0AB1
:1019400061E0CE0101960E94650A898187FF07C088
:101950000E94C90A8983809176038823B1F3898123
:101960000F90DF91CF91089540E866EC85E70E94E3
:101970009F0B6AE070E080E090E00E94CF1A81E067
:101980000895CF93DF931F92CDB7DEB70E94390C35
:10199000898380917603882311F086E28983898187
:1019A00082FF12C08B7F8983CE0101960E944B0C6F
:1019B0000E94390C90917603911108C082FB882710
:1019C00080F991E0892703C081E001C080E00F9099
:1019D000DF91CF910895462F682F85E70C949F0BD8
:1019E000CF92DF92FF920F931F93CF93DF931F92BB
:1019F000CDB7DEB7162F042F482F692F80E97983E2
:101A00000E949F0BF12EC12E7981D72E8C2D8F191C
:101A1000801768F4F60161916F0184E70E94810BE1
:101A200080EF0E94690B83EA0E94690BEFCF0F9051
:101A3000DF91CF911F910F91FF90DF90CF9008958C
:101A4000CF92DF92EF92FF920F931F93CF93DF938A
:101A5000DC019A018C01012F112702950695077070
:101A6000CD01880F991F880F991F9F77F901F6956F
:101A7000E795F695E795EA0FFB1F3197EF2FFF27C4
:101A8000E295E695E770E017F107B9F06B01E0E049
:101A9000F0E8EF01C81BD90B7901EC1AFD0A9E0191
:101AA000AB01602F0E94C40BA6014C0F5D1F61E0CB
:101AB000600F970180E090E002C0AB016E2FDF91D4
:101AC000CF911F910F91FF90EF90DF90CF900C94EA
:101AD000C40BEF92FF921F93CF93DF9300D000D0FF
:101AE000CDB7DEB79B838A837B01142F252F2F71FF
:101AF00090910C01907E922B90930C0140930D01DC
:101B000090910401907E292B2093040140930501BC
:101B100048E068E071E080E192E05C830E94F00CB4
:101B200048E060E071E088E192E00E94F00C62E041
:101B300085ED0E94EB0C60E184ED0E94EB0C62E00D
:101B400083ED0E94EB0C68E182ED0E94EB0C61E0FA
:101B500086ED0E94EB0C42E0BE016E5F7F4F81E795
:101B600092E60E94F00C612F5C81752FC7010E94E4
:101B7000660C62E086ED0E94EB0C8AE0898341E00E
:101B8000BE016F5F7F4F80E792E60E94F00C41E05C
:101B9000BE016F5F7F4F80E792E60E94FF0B8823B4
:101BA00019F0898187FDF3CF0F900F900F900F9060
:101BB000DF91CF911F91FF90EF9008956AE070E060
:101BC00080E090E00E94CF1A549A569A559A5C9AF7
:101BD0005D985E985C985D9A6AE070E080E090E0C5
:101BE0000E94CF1A5D986AE070E080E090E00E9469
:101BF000CF1A5D9A6AE070E080E090E00E94CF1A10
:101C00005D986AE070E080E090E00E94CF1A5C9AF4
:101C10006AE070E080E090E00C94CF1A549A5698F5
:101C200055985E985D985C986AE070E080E090E07E
:101C30000E94CF1A5C9A6AE070E080E090E00C9419
:101C4000CF1A0E940E0E6BE375E087E793E00C94C9
:101C500007190E94DE0D69E275E087E793E00E94B4
:101C600007190C94B40CEF92FF921F93CF93DF935C
:101C700000D01F92CDB7DEB77C01162F872F1982B7
:101C80001A821B82AE014E5F5F4FBE016F5F7F4FB6
:101C90000E94AA16B70187E793E00E94D618BE01FA
:101CA0006F5F7F4F87E793E00E94FA18AE014E5FA7
:101CB0005F4FBE016F5F7F4F812F0E94AA16BE014A
:101CC0006F5F7F4F87E793E00E9419190F900F9085
:101CD0000F90DF91CF911F91FF90EF900895EF92B9
:101CE000FF921F93CF93DF9300D01F92CDB7DEB743
:101CF0007C01162F872F19821A821B82AE014E5F3C
:101D00005F4FBE016F5F7F4F0E94AA16B70187E742
:101D100093E00E94D618BE016F5F7F4F87E793E084
:101D20000E94FA18AE014E5F5F4FBE016F5F7F4F9A
:101D3000812F0E94AA16BE016F5F7F4F87E793E055
:101D40000E94FA180F900F900F90DF91CF911F9182
:101D5000FF90EF9008950F931F93CF93DF9300D0E0
:101D60001F92CDB7DEB78C01862F19821A821B8293
:101D7000AE014E5F5F4FBE016F5F7F4F0E94AA169C
:101D8000B80187E793E00E94D618BE016F5F7F4FCE
:101D900087E793E00E94FA180F900F900F90DF9161
:101DA000CF911F910F9108950F931F93CF93DF93BE
:101DB00000D01F92CDB7DEB78C01862F19821A8210
:101DC0001B82AE014E5F5F4FBE016F5F7F4F0E946F
:101DD000AA16B80187E793E00E94D618BE016F5F8C
:101DE0007F4F87E793E00E9419190F900F900F9093
:101DF000DF91CF911F910F9108956F927F928F92F3
:101E00009F92AF92BF92CF92DF92EF92FF920F9389
:101E10001F93CF93DF9300D000D0CDB7DEB74C0136
:101E2000062FCE0101966C015C01E12CF12C10E033
:101E3000662E712C82E08E0D8017E0F4C7010396A8
:101E400086159705BCF4AE014C5F5F4FF401EE0DB3
:101E5000FF1D638182810E948216882359F08C8144
:101E6000F50181935F011F5FF2E0EF0EF11C14306A
:101E700009F705C0111103C069E276E029C062E2EA
:101E800076E087E793E00E94D61876018E2D8C19B4
:101E9000811740F4F70161917F0181E296E00E9491
:101EA000AB0EF4CF69E271E087E793E00E94191965
:101EB000612FC6010E94390B90917603911106C0E3
:101EC000682F87E196E00E94D40E06C064E076E0B9
:101ED00087E793E00E9407190F900F900F900F90E3
:101EE000DF91CF911F910F91FF90EF90DF90CF90F6
:101EF000BF90AF909F908F907F906F900895CF93F9
:101F0000DF93EC016EEC7BE087E793E00E9407191A
:101F10006BEB7BE087E793E00E94D618688167FB54
:101F2000662760F942E050E087E793E00E94D91904
:101F30006DEA7BE087E793E00E94D618688165FB35
:101F4000662760F942E050E087E793E00E94D919E4
:101F50006DE97BE087E793E00E94D618688162FB19
:101F6000662760F942E050E087E793E00E94D919C4
:101F70006EE87BE087E793E00E94D618688163FBF8
:101F8000662760F942E050E087E793E00E94D919A4
:101F900069E77BE087E793E00E94D6186881669541
:101FA000617042E050E087E793E00E94D9196CE647
:101FB0007BE087E793E00E94D618688166FB66277E
:101FC00060F942E050E087E793E00E94D9196FE59D
:101FD0007BE087E793E00E94D61868816295617084
:101FE00042E050E087E793E00E94D9196DE47BE07E
:101FF00087E793E00E94D6186881617042E050E064
:1020000087E793E0DF91CF910C94D919AF92BF92FB
:10201000CF92DF92EF92FF920F931F93CF93DF93B4
:10202000CDB7DEB7EF970FB6F894DEBF0FBECDBFCA
:102030006C01F62E02E010E0A62EB12C0F15E8F48C
:10204000E02FF0E0CF0101968A159B05B4F4EC0D6A
:10205000FD1DAE01415C5F4F618180810E9482164F
:10206000882359F0E1E0F0E0EC0FFD1FE10FF11DD6
:102070008FAD80831F5F0E5FE1CF111103C064EF4E
:1020800075E02DC066EE75E087E793E00E94D618F4
:10209000CE0101967C016C018C2D8E19811740F4C4
:1020A000F60161916F0185EE95E00E94AB0EF4CFD1
:1020B00069E271E087E793E00E941919612F70E0EF
:1020C000C7010E94660C8FAF80917603811105C015
:1020D000CE01CF960E947F0F06C064EC75E087E7C3
:1020E00093E00E940719EF960FB6F894DEBF0FBE7B
:1020F000CDBFDF91CF911F910F91FF90EF90DF90B7
:10210000CF90BF90AF900895EF92FF921F93CF931F
:10211000DF9300D000D0CDB7DEB77C011C821B82DC
:10212000FC01938190539430E0F593709295907FE9
:102130009B838281833611F1833799F51581105382
:10214000183078F5AE014E5F5F4F608587810E9441
:102150008216882331F1AE014F5F5F4FF701628530
:1021600081850E9482168823E1F08B818860177038
:10217000887F182B1B8349816A8102C040E060E0A0
:10218000CE0103960E94DB0A8C8380917603811135
:1021900005C0CE0104960E947F0F09C066E975E074
:1021A00002C068E775E087E793E00E9407190F9087
:1021B0000F900F900F90DF91CF911F91FF90EF90B4
:1021C0000895CF93DF93EC016EE37BE087E793E024
:1021D0000E94071961E37BE087E793E00E94D6182D
:1021E000688162FB662760F942E050E087E793E090
:1021F0000E94D9196EE17BE087E793E00E94D61830
:10220000688165FB662760F942E050E087E793E06C
:102210000E94D9196DE07BE087E793E00E94D61811
:1022200068816695617042E050E087E793E00E9424
:10223000D9196FEF7AE087E793E00E94D61868819A
:1022400063FB662760F942E050E087E793E0DF91A7
:10225000CF910C94D91960EE7AE087E793E00E9461
:10226000071967EC7AE087E793E00E9407196FEAA5
:102270007AE087E793E00E9407196FE87AE087E742
:1022800093E00E9407196AE77AE087E793E00E94EB
:10229000071960E67AE087E793E00E94071967E490
:1022A0007AE087E793E00E9407196EE27AE087E719
:1022B00093E00E94071960EF79E087E793E00E94BE
:1022C000071969EB79E087E793E00E9407196DE948
:1022D00079E087E793E00E9407196CE879E087E7E7
:1022E00093E00E94071969E779E087E793E00E948D
:1022F00007196CE479E087E793E00E94071969E029
:1023000079E087E793E00E9407196EEB78E087E7B2
:1023100093E00E94071963E978E087E793E00E9461
:1023200007196AE778E087E793E00E94071963E6F8
:1023300078E087E793E00C9407191F93CF93DF931E
:1023400000D0CDB7DEB70E948C0A192F909176038A
:1023500091110BC0682F87E598E00E94AB0E612FAA
:102360008EE498E00E94D40E06C069E378E087E727
:1023700093E00E940719CE0101960E94330C882336
:1023800009F447C06CE278E087E793E00E94D61832
:1023900089818295877090E08230910571F02CF4EC
:1023A000019789F467E278E010C08330910541F02D
:1023B000049749F466E178E008C062E278E005C07D
:1023C0006CE178E002C06DE078E087E793E00E947E
:1023D0000719898183FF03C064E078E002C067EFDA
:1023E00077E087E793E00E9407196BEE77E087E7D5
:1023F00093E00E94D6186A81677070E06F5F7F4F2C
:102400004AE050E087E793E00E94BE1968EE77E06B
:1024100002C06BEC77E087E793E00E9407190F900A
:102420000F90DF91CF911F9108950E94A00A2091F3
:102430007603211105C0BC0184EC97E00C94330EA7
:1024400064EB77E087E793E00C940719CF93DF9371
:102450001F92CDB7DEB70E94C90A898380917603A7
:10246000811105C0CE0101960E947F0F06C060EA6F
:1024700077E087E793E00E9407190F90DF91CF91F3
:102480000895CF93DF931F92CDB7DEB70E94390C2A
:10249000898380917603811105C0CE0101960E9447
:1024A000E11006C066E877E087E793E00E9407192D
:1024B0000F90DF91CF9108950E94B70A9091760313
:1024C000911106C0682F70E089E797E00C94330EF5
:1024D0006EE577E087E793E00C940719FF920F937E
:1024E0001F93CF93DF93CDB7DEB762970FB6F89403
:1024F000DEBF0FBECDBF8C01FC01948120EDF22E1A
:10250000F90EF7E0FF1508F451C0AE014E5E5F4FC3
:10251000F801678186810E948216882309F446C0EB
:10252000AE014F5E5F4FF801618580850E94821683
:102530008823E1F10A8910E0102F00278989082BF0
:1025400020E130E0AE014F5F5F4F6F2DC8010E9468
:10255000C40B882341F14AE050E06F2D87E793E0F8
:102560000E94D219B8018CE597E00E946F0E6AE5CF
:1025700077E087E793E00E94D6188E010F5F1F4F28
:1025800080E1F82EF00EF80161918F0188E597E067
:102590000E94AB0EF012F7CF69E271E087E793E09B
:1025A0000E94191909C06FE377E002C06AE277E080
:1025B00087E793E00E94071962960FB6F894DEBF92
:1025C0000FBECDBFDF91CF911F910F91FF90089566
:1025D000CF92DF92FF920F931F93CF93DF9300D0A0
:1025E0001F92CDB7DEB7FC012481338140EDF42E7C
:1025F000F30EF9E0FF1508F45BC031E0203211F46E
:1026000030E009C02A330CF053C020534AE0F49E56
:10261000200D1124F22E8C01030F111DAE014D5F10
:102620005F4FF801668185810E948216882309F434
:102630003FC0AE014E5F5F4FF801608587810E9409
:1026400082168823A9F10B8110E0102F00278A81C0
:10265000082B6801B80189E297E00E946F0E67E2DB
:1026600077E087E793E00E94D6188C2D801B8F15AA
:10267000C0F441E0BE016F5F7F4FC6010E94FF0BB7
:10268000882349F0698185E297E00E94AB0EFFEF55
:10269000CF1ADF0AEACF6BE077E087E793E00E948A
:1026A000071969E271E087E793E00E94191906C0F3
:1026B00060EE76E087E793E00E9407190F900F9095
:1026C0000F90DF91CF911F910F91FF90DF90CF90EE
:1026D0000895FC0192819D36C1F04CF4933699F037
:1026E000993669F09136B1F4CF010C946E1293379C
:1026F00041F0983761F0903769F40C9415120C94FE
:102700009D110C9426120C9441120C945C12CF0172
:102710000C94E8126CEC76E087E793E00C940719D0
:102720000E94030B90917603911113C0682F82ECE5
:1027300096E00E94AB0E0E94A00A20917603211120
:1027400005C0BC0187EB96E00C94330E68EA76E096
:1027500002C06AE876E087E793E00C940719CF930C
:10276000DF931F92CDB7DEB70E94150B898380914E
:102770007603811105C0CE0101960E947F0F06C02D
:102780006AE676E087E793E00E9407190F90DF91F1
:10279000CF910895CF93DF931F92CDB7DEB70E94FC
:1027A000270B898380917603811105C0CE010196A4
:1027B0000E947F0F06C068E476E087E793E00E94FE
:1027C00007190F90DF91CF910895FC0182818E3619
:1027D00031F0823731F0883631F40C94AF130C9419
:1027E00090130C94CA136AE376E087E793E00C94A5
:1027F0000719CF93DF931F92CDB7DEB70E94980CD5
:10280000898380917603811105C0CE0101960E94D3
:102810007F0F06C068E575E087E793E00E9407191F
:102820006AE070E080E090E00E94CF1A0F90DF91A4
:10283000CF910895E6E3F1E081E29EE093A382A3C5
:1028400089E29EE09783868389E693E19587848772
:1028500085EE93E19583848386E090E195A784A734
:102860008DEF9EE09187808784E890E19383828357
:1028700082E696E1938782876AEF74E087E793E0C8
:102880000E9407196CEC74E087E793E00C94071939
:10289000CF936CEB74E087E793E00E9407190E94E6
:1028A000C10CC82F811107C069EA74E087E793E083
:1028B0000E94071908C069E974E087E793E00E9465
:1028C00007190E94F9138C2FCF9108952F923F92F0
:1028D0004F925F926F927F928F929F92AF92BF9230
:1028E000CF92DF92EF92FF920F931F93CF93DF93DC
:1028F000CDB7DEB7C650D2400FB6F894DEBF0FBEDC
:10290000CDBF4B015C01342E252E6901862F8370CB
:1029100024013501481A510861087108E82EF12C8C
:102920008701020F131FC80183709927892B19F0A3
:102930000C7F0C5F1F4F46E052E06FEF70E0CE015E
:1029400001960E94BF1BA601632D722D81E090E0CD
:102950008C0F9D1F8E0D9F1D0E94B61B82E07694EA
:102960006794579447948A95D1F7A801BE016F5F89
:102970007F4FC2010E94690DA801BE016F5F7F4FAA
:10298000C2010E94200D832D922D612C712C6C149C
:102990007D0409F445C08C01019623014E0C5F1C97
:1029A00021E030E02C0F3D1F420E531EF20130811A
:1029B000F8012081321781F163E974E087E793E041
:1029C0000E94D618B501A401460D571D611D711D49
:1029D00020E130E087E793E00E94C5196FE874E0DA
:1029E00087E793E00E94D61840E150E0F80160814B
:1029F00087E793E00E94D2196AE874E087E793E0E2
:102A00000E94D61840E150E0F201608187E793E030
:102A10000E94D91987E005C0FFEF6F1A7F0AB7CF70
:102A200080E0CA5FDD4F0FB6F894DEBF0FBECDBFAA
:102A3000DF91CF911F910F91FF90EF90DF90CF909A
:102A4000BF90AF909F908F907F906F905F904F90CE
:102A50003F902F9008958BE00895CF92DF92EF92F0
:102A6000FF920F931F93CF93DF93CDB7DEB7D25072
:102A70000FB6F894DEBF0FBECDBF8A016B017C019B
:102A800082E0F694E794D794C7948A95D1F740E012
:102A900052E0B801C6010E94690D40E052E0BE015B
:102AA0006F5F7F4FC6010E94200D78018E010F5F7E
:102AB0001F4F6E018FEFC81A8DEFD80AF801D701AA
:102AC0009D9181919817E9F0F70161917F0140E1B3
:102AD00050E087E793E00E94D21963E171E087E755
:102AE00093E00E94FA18F80161918F0140E150E0F3
:102AF00087E793E00E94D9190C151D0529F787E097
:102B000004C0EC15FD05E1F680E0DE5F0FB6F89439
:102B1000DEBF0FBECDBFDF91CF911F910F91FF9010
:102B2000EF90DF90CF9008958BE008956BE774E00D
:102B300087E793E00E94071960E080E090E00C9442
:102B4000210E8F929F92AF92BF92CF92DF92EF921F
:102B5000FF920F931F93CF93DF93CDB7DEB7CA5089
:102B6000D2400FB6F894DEBF0FBECDBFC75FDD4FBA
:102B700019821882C950D24080E090E0A4E0B0E011
:102B8000CB5FDD4F88839983AA83BB83C550D24036
:102B9000CE01875F9D4F0E94330CC75FDD4F888158
:102BA000C950D2408295877090E00097B1F00197AC
:102BB00040E050E860E070E08A019B0104C0000F33
:102BC000111F221F331F8A95D2F7CB5FDD4F088379
:102BD00019832A833B83C550D240CB5FDD4F688188
:102BE00079818A819B81C550D2402FEF3FE740E039
:102BF00050E00E948E1BE22E8E010F5F1D4FF801E8
:102C0000108211821282138244E050E0BE016B5F99
:102C10007D4F87E793E00E94961861E070E080E0C6
:102C200090E00E94CF1AF12CFE1488F5C12CD12C13
:102C300020E032E0AE014F5F5F4F6F2DC6010E9472
:102C4000C40B9E012F5F3F4F59014501F501619172
:102C50005F0187E793E00E944B17F4012081F801A0
:102C600080819181A281B381820F911DA11DB11D2F
:102C700080839183A283B383A016B10631F7FEEF60
:102C8000DF1AC11420E8D20699F6F394CDCF44E0C0
:102C900050E0B80187E793E00E949618C65FDD4FC9
:102CA0000FB6F894DEBF0FBECDBFDF91CF911F915D
:102CB0000F91FF90EF90DF90CF90BF90AF909F90DB
:102CC0008F900895FC018281853621F0823721F4AE
:102CD0000C94A1150C94F9136CE475E087E793E06C
:102CE0000C940719282FFC018E2F821B861748F49D
:102CF00080819FEB980F9A3110F4805E808331962B
:102D0000F3CF0895673434F4613454F460536A3077
:102D100040F01EC09FE9960F9630D0F4675501C071
:102D20006753873434F4813454F480538A3040F04C
:102D30000FC09FE9980F963058F4875501C087530C
:102D400090E1899F600D1124FA01608381E008956C
:102D500080E00895982F92959F709A3010F4905DBE
:102D600001C0995CFB0190838F708A3010F4805D04
:102D700001C0895CFA0180830895FC01918D228D48
:102D8000892F90E0805C9F4F821B91098F73992758
:102D90000895FC01918D828D981731F0828DE80F96
:102DA000F11D858D90E008958FEF9FEF0895FC0150
:102DB000918D828D981761F0828DDF01A80FB11D72
:102DC0005D968C91928D9F5F9F73928F90E0089596
:102DD0008FEF9FEF0895FC01538D448D252F30E038
:102DE000842F90E0821B930B541710F0CF96089518
:102DF000019708958FE498E1892B49F080E090E0F5
:102E0000892B29F00E944F1881110C94000008951D
:102E1000FC01848DDF01A80FB11DA35ABF4F2C9177
:102E2000848D90E001968F739927848FA689B78946
:102E30002C93A089B1898C9180648C93938D848D1F
:102E4000981306C00288F389E02D80818F7D8083EE
:102E50000895CF93DF93EC01888D8823C9F0EA8928
:102E6000FB89808185FD05C0A889B9898C9186FD83
:102E70000FC00FB607FCF5CF808185FFF2CFA88980
:102E8000B9898C9185FFEDCFCE010E940817E7CF5D
:102E9000DF91CF910895EF92FF920F931F93CF93FD
:102EA000DF93EC0181E0888F9B8D8C8D981305C09A
:102EB000E889F989808185FD24C0F62E0B8D10E00C
:102EC0000F5F1F4F0F731127E02E8C8DE8120CC07F
:102ED0000FB607FCFACFE889F989808185FFF5CF25
:102EE000CE010E940817F1CF8B8DFE01E80FF11D76
:102EF000E35AFF4FF0820B8FEA89FB898081806261
:102F000007C0EE89FF896083E889F9898081806440
:102F1000808381E090E0DF91CF911F910F91FF902E
:102F2000EF900895CF92DF92EF92FF921F93CF938D
:102F3000DF93EC016A017B01122FE889F98982E0B5
:102F400080834115514E61057105B1F060E079E073
:102F50008DE390E0A70196010E948E1BDA01C90162
:102F60000197A109B109B695A79597958795AC01E9
:102F7000411580E15807A8F0E889F989108260E8D6
:102F800074E88EE190E0A70196010E948E1BBA01C1
:102F9000A9014150510961097109769567955795C5
:102FA0004795EC85FD855083EE85FF854083188E1F
:102FB000EC89FD891083EA89FB89808180618083A7
:102FC000EA89FB89808188608083EA89FB89808126
:102FD00080688083EA89FB8980818F7D8083DF918F
:102FE000CF911F91FF90EF90DF90CF9008951F92A7
:102FF0000F920FB60F9211242F938F939F93EF93FD
:10300000FF93E0918703F09188038081E0918D0325
:10301000F0918E0382FD12C09081809190038F5FAA
:103020008F7320919103821751F0E0919003F0E0AB
:10303000E958FC4F958F8093900301C08081FF91E8
:10304000EF919F918F912F910F900FBE0F901F9036
:1030500018951F920F920FB60F9211242F933F9342
:103060004F935F936F937F938F939F93AF93BF9390
:10307000EF93FF9387E793E00E940817FF91EF918A
:10308000BF91AF919F918F917F916F915F914F9180
:103090003F912F910F900FBE0F901F90189587E7CB
:1030A00093E00E94BD1621E0892B09F420E0822FD5
:1030B0000895E7E7F3E01382128288EE93E0A0E040
:1030C000B0E084839583A683B78389E191E09183FF
:1030D000808385EC90E09587848784EC90E09787E7
:1030E000868780EC90E0918B808B81EC90E0938BD5
:1030F000828B82EC90E0958B848B86EC90E0978BB2
:10310000868B118E128E138E148E089508950E9450
:10311000161B0E9486180E943806CAEFD6E10E944C
:1031200045062097E1F30E94FA16F9CFCF92DF927D
:10313000EF92FF920F931F93CF93DF936C017A016D
:103140008B01C0E0D0E0CE15DF0589F0D8016D918C
:103150008D01D601ED91FC910190F081E02DC60129
:103160000995892B11F47E0102C02196ECCFC7018D
:10317000DF91CF911F910F91FF90EF90DF90CF9053
:1031800008956115710579F0FB0101900020E9F7C0
:103190003197AF01461B570BDC01ED91FC9102808A
:1031A000F381E02D099480E090E00895EF92FF9282
:1031B0000F931F93CF93DF938C017B01C0E0D0E08E
:1031C000F701EC0FFD1F6491662361F0D801ED91CA
:1031D000FC910190F081E02DC8010995892B11F037
:1031E0002196EECFCE01DF91CF911F910F91FF90ED
:1031F000EF9008950C94C118DC01ED91FC910190C1
:10320000F081E02D099467E271E00C94C1180F93EE
:103210001F93CF93DF93EC010E94D6188C01CE014F
:103220000E940319800F911FDF91CF911F910F9181
:1032300008950F931F93CF93DF93EC010E94C11861
:103240008C01CE010E940319800F911FDF91CF9155
:103250001F910F9108954F925F926F927F92EF921C
:10326000FF920F931F93CF93DF93CDB7DEB7A19754
:103270000FB6F894DEBF0FBECDBF7C01FA01CB01C3
:1032800019A2223008F42AE08E010F5D1F4F422E52
:10329000512C612C712CBF01A30192010E948E1B45
:1032A000F901CA01015011096A3014F4605D01C0CE
:1032B000695CD8016C93232B242B252B61F7B80173
:1032C000C7010E94C118A1960FB6F894DEBF0FBEC9
:1032D000CDBFDF91CF911F910F91FF90EF907F9025
:1032E0006F905F904F900895CF92DF92EF92FF9290
:1032F0000F931F93CF93DF93EC016A017B0121159C
:10330000310579F4E881F9810190F081E02D642F95
:10331000DF91CF911F910F91FF90EF90DF90CF90B1
:1033200009942A303105E9F477FF1AC06DE20E9452
:10333000FC188C0144275527BA014C195D096E0908
:103340007F092AE0CE010E942B19800F911FDF9187
:10335000CF911F910F91FF90EF90DF90CF90089544
:103360002AE0B701A601CE01DF91CF911F910F9105
:10337000FF90EF90DF90CF900C942B199A01AB0146
:10338000770F660B770B0C9474192115310541F4F6
:10339000DC01ED91FC910190F081E02D642F099406
:1033A0000C942B199A01462F50E060E070E00C94C9
:1033B000C5190F931F93CF93DF93EC019A01462F0A
:1033C00050E060E070E00E94C5198C01CE010E94BF
:1033D0000319800F911FDF91CF911F910F910895D5
:1033E0000F931F93CF93DF93EC010E949E1A68877F
:1033F00079878A879B87E881F9810284F385E02DAC
:10340000CE01099597FF17C00E949E1A088519855D
:103410002A853B85DC01CB01801B910BA20BB30BF2
:103420000C811D812E813F8180179107A207B30770
:1034300010F38FEF9FEFDF91CF911F910F910895C0
:10344000AF92BF92CF92DF92EF92FF920F931F93B2
:10345000CF93DF9321153105D1F079015C016A0129
:10346000C0E0D0E0062F660F110BC5010E94F019D5
:1034700097FF02C0CE010DC080179107D9F3F60166
:1034800081936F012196CE15DF0579F7F3CF80E0A8
:1034900090E0DF91CF911F910F91FF90EF90DF901F
:1034A000CF90BF90AF9008951F920F920FB60F92DA
:1034B00011242F933F938F939F93AF93BF9380914A
:1034C000150490911604A0911704B091180430913E
:1034D000140423E0230F2D3720F40196A11DB11D04
:1034E00005C026E8230F0296A11DB11D20931404E8
:1034F0008093150490931604A0931704B0931804B6
:103500008091190490911A04A0911B04B0911C049D
:103510000196A11DB11D8093190490931A04A093E4
:103520001B04B0931C04BF91AF919F918F913F9169
:103530002F910F900FBE0F901F9018952FB7F894F2
:1035400060911504709116048091170490911804ED
:103550002FBF08953FB7F8948091190490911A04F1
:10356000A0911B04B0911C0426B5A89B05C02F3F59
:1035700019F00196A11DB11D3FBFBA2FA92F982F99
:103580008827820F911DA11DB11DBC01CD0142E014
:10359000660F771F881F991F4A95D1F708958F925C
:1035A0009F92AF92BF92CF92DF92EF92FF926B0108
:1035B0007C010E94AA1A4B015C01C114D104E104F0
:1035C000F10401F10E948D1B0E94AA1ADC01CB01BB
:1035D00088199909AA09BB09883E9340A105B1053C
:1035E00060F321E0C21AD108E108F10888EE880EE4
:1035F00083E0981EA11CB11CC114D104E104F104A4
:1036000019F7DBCFFF90EF90DF90CF90BF90AF9096
:103610009F908F9008958230910538F0880F991F00
:10362000880F991F05970197F1F70895789484B54D
:10363000826084BD84B5816084BD85B5826085BDAE
:1036400085B5816085BDEEE6F0E080818160808394
:10365000E1E8F0E010828081826080838081816077
:103660008083E0E8F0E0808181608083E1EBF0E03E
:10367000808184608083E0EBF0E0808181608083E2
:10368000EAE7F0E0808184608083808182608083CB
:103690008081816080838081806880831092C100F6
:1036A0000895CF93DF9390E0FC01E352F44F24910F
:1036B000FC01EF50F44F8491882361F190E0880F72
:1036C000991FFC01E15FF34FC591D491FC01EB5FC1
:1036D000F34FA591B491611109C09FB7F894888107
:1036E000209582238883EC912E230BC0623061F4F5
:1036F0009FB7F8943881822F809583238883EC913B
:103700002E2B2C939FBF06C08FB7F894E8812E2BE9
:1037100028838FBFDF91CF9108950895A1E21A2EDB
:10372000AA1BBB1BFD010DC0AA1FBB1FEE1FFF1F65
:10373000A217B307E407F50720F0A21BB30BE40BB5
:10374000F50B661F771F881F991F1A9469F76095FC
:103750007095809590959B01AC01BD01CF010895B6
:10376000EE0FFF1F0590F491E02D0994FB01DC01A1
:1037700002C001900D9241505040D8F70895DC01ED
:1037800001C06D9341505040E0F70895F894FFCF89
:1037900000006273021012426260000002101F11EA
:1037A0006F6B002000000000004B179618EB1629E5
:1037B00017BD16D716C9160D0A006E616E00696E28
:0637C00066006F76660052
:00000001FF
